:020000040800F2
:10000000780A00209D010008DB280008452500082B
:10001000D92800085B080008B5300008000000007F
:10002000000000000000000000000000DF280008C1
:10003000C50A000800000000DD280008E9290008C2
:10004000B7010008B7010008B7010008B7010008B0
:10005000B7010008B7010008B7010008B7010008A0
:10006000B7010008B7010008B7010008B701000890
:10007000B7010008B7010008B7010008B701000880
:10008000B7010008B7010008B701000869080008B7
:100090005D080008B7010008B7010008B7010008B3
:1000A000B70100089D2A0008B7010008B701000841
:1000B000B7010008B7010008B7010008B701000840
:1000C000B7010008B7010008B7010008B701000830
:1000D000B7010008B7010008B7010008B701000820
:1000E000B7010008B7010008B7010008B701000810
:1000F000B7010008B7010008B7010008B701000800
:10010000B7010008B7010008B7010008B7010008EF
:10011000B7010008B7010008B7010008B7010008DF
:10012000B7010008150A0008B7010008B701000868
:10013000B7010008B7010008B701000881080008EE
:1001400075080008B7010008B7010008B7010008EA
:10015000B7010008B7010008B70100087D300008AA
:10016000B7010008B7010008B7010008B70100088F
:10017000B7010008B7010008B7010008000000003F
:10018000B7010008B7010008DFF80CD000F03CFA16
:1001900000480047513E0008780A00200648804782
:1001A00006480047FEE7FEE7FEE7FEE7FEE7FEE75C
:1001B000FEE7FEE7FEE7FEE7812A00088901000866
:1001C0002DE9F05F0546002092469B46884606468C
:1001D000814640241BE0284641464746224600F01F
:1001E0006EF953465A46C01A914110D3114618462B
:1001F000224600F055F92D1A67EB01084F462246BA
:100200000120002100F04CF917EB00094E41201E9F
:10021000A4F10104DFDC484631462A464346BDE8E6
:10022000F09F40EA01039B0703D009E008C9121FB1
:1002300008C0042AFAD203E011F8013B00F8013BA0
:10024000521EF9D27047D2B201E000F8012B491ECC
:10025000FBD270470022F6E710B513460A46044663
:100260001946FFF7F0FF204610BD2DE9FE4F81EA49
:10027000030404F0004421F0004100944FF0000B0F
:1002800023F0004350EA01045ED052EA03045BD03D
:10029000C3F30A54C1F30A552C44A4F2F334019475
:1002A000A0FB0254C1F3130141F48011C3F3130303
:1002B00043F4801301FB024400FB034E840A970AB7
:1002C00044EA815447EA8357A4FB076802958D0AE4
:1002D00005FB07854FEA932C04FB0C542705029D70
:1002E0004FEA065847EA1637B5EB08056EEB070CE0
:1002F000870E920E47EA811742EA8312A7FB02019A
:10030000B6EB0B0164EB00042B0D43EA0C335E18D3
:1003100044EB1C50DA465146E7FB0201C5F31304D7
:100320004FEA0B3343EA14534FEA0432019C43EA89
:100330000603A4F10C040294009CCDE900B400F083
:1003400014F903B0BDE8F08F00200146F9E72DE96C
:10035000F04D81EA030404F0004B21F000451446FF
:100360004FF0000A23F0004150EA050220D054EA81
:1003700001021DD0C5F30A570246C5F31303C1F3AA
:100380001300C1F30A5640F4801543F48013A7EB21
:100390000608101BD64608F2FD3873EB050002D3A1
:1003A00008F1010801E092185B41B8F1000F03DA8F
:1003B00000200146BDE8F08D00204FF48011064674
:1003C00084460EE0171B73EB050705D3121B63EB86
:1003D000050306434CEA010C49084FEA3000921825
:1003E0005B4150EA0107EDD152EA030012D082EAE4
:1003F000040083EA0501084305D0101BAB4106D277
:100400000122002306E000224FF0004302E06FF0DB
:10041000010253101AEB06004CEB085110EB0A00D6
:1004200041EB0B01BDE8F04D00F090B80EB5C10FE7
:1004300080EAE0700844CA07002140F233438DE8A7
:100440000E000A460B4600F090F803B000BD0EB552
:1004500040F2334102910021CDE900110A460B46DA
:1004600000F083F803B000BD01F0004330B421F088
:10047000004150EA010206D00A0DA2F56072C1F3F4
:100480001301002A02DC30BC00207047440F44EA0C
:10049000C104C100E01830BC00EBC25000F01FB82E
:1004A000202A04DB203A00FA02F100207047914034
:1004B000C2F1200320FA03F3194390407047202A29
:1004C00004DB203A21FA02F00021704721FA02F3FE
:1004D000D040C2F1200291400843194670470029DC
:1004E000A8BF7047401C490008BF20F001007047BA
:1004F00010B4B0FA80FC00FA0CF050EA010404BF1A
:1005000010BC704749B1CCF1200421FA04F411FA6F
:100510000CF118BF012121430843A3EB0C01CB1DB3
:100520004FEA00614FEA102042BF002010BC704724
:1005300000EBC35010440029A4BF10BC7047401CFE
:10054000490008BF20F0010010BC704710B5141E10
:1005500073F1000408DA401C41F1000192185B417C
:100560001A4301D120F0010010BD2DE9F04D924653
:100570009B4611B1B1FA81F202E0B0FA80F220326A
:100580009046FFF78DFF04460F4640EA0A0041EA15
:100590000B0153465A46084313D0114653EA010053
:1005A00019D0C8F140025046FFF789FF05460E46B4
:1005B000504659464246FFF773FF084305D00120D5
:1005C00004E020463946BDE8F08D0020054346EAA8
:1005D000E0762C4337430A986305E40AA0EB080051
:1005E0000022FD0A44EA47540A3002D500200146A1
:1005F000E9E7010510196941DDE90845001969417C
:10060000BDE8F04DA2E70000064C074D06E0E068AB
:1006100040F0010394E8070098471034AC42F6D349
:10062000FFF7B6FD68440008884400082DE9FE4F36
:10063000804681EA0300C00F0C46009021F0004183
:1006400023F00045B8EB0200A94105D240462146FF
:1006500090461C460B46024623F00040104347D00C
:10066000270DC7F30A00C3F30A510290401A019004
:1006700040286BDAC3F3130040F4801B00989246C5
:1006800020B10023D2EB030A63EB0B0B0198594610
:10069000C0F140025046FFF703FF06460D465046A4
:1006A0005946019A00F088F810EB080061410024D7
:1006B00087EA115284EAE7731A4340D0009A62B382
:1006C000019A012A4FEA075215DC001B61EB020177
:1006D0004FF0004202EA0752CDE90042001C41F50A
:1006E000801132462B46FFF740FF03B0BDE8F08F84
:1006F00040462146F9E7001B61EB0201001C41F571
:10070000801300185B412018A2F5001747EB030186
:1007100040EAD570B6196D4111E06D084FEA360612
:1007200045EAC0754FEA0752001B61EB0201001C4D
:1007300041F5801149084FEA300000195141324615
:100740002B4603B0BDE8F04FFFF700BF0098012231
:1007500040000023D0EB020263EBE07300982146D7
:100760004FEAE074B8EB000061EB0401E9E783F0C5
:1007700000435BE781F0004158E770B5C1F30A52CE
:1007800001F000450024C1F3130140F2FF3341F4AE
:1007900080119A4201DA002070BD40F233439A4240
:1007A000A2F2334203DC5242FFF789FE00E09040A0
:1007B0002C43F1D0404270BD202A06DBCB17203AF3
:1007C00041FA02F043EAE07306E041FA02F3D04056
:1007D000C2F12002914008431946704770B50446A3
:1007E00090F83900202801D0212829D121B31AB34B
:1007F00094F83800012823D0012084F83800A16241
:10080000A2850025E56394F83900212816D022201E
:1008100084F8390008461346666B21680246304664
:10082000091D00F053FF2068416941F0400141611A
:1008300084F83850002070BD012070BD2320E7E708
:10084000022070BD10B50446FFF7C8FF2068C168DC
:1008500041F01001C160002010BDFEE7014800F02A
:1008600066BB000034030020014800F060BB0000BC
:1008700034030020014800F05ABB00005C03002054
:10088000014800F054BB00005C03002000B58BB0B1
:1008900000200121CDE9060108910090019002900D
:1008A00003900590049069460C4800F045FA0B4807
:1008B00000F08CFD0221094800F0C8F90E200990D3
:1008C00005906946064800F037FA054800F07EFDBD
:1008D0000221034800F0BAF90BB000BD3403002038
:1008E0005C030020F0B58BB0074600200D46049055
:1008F000059008201B4906900024D1E9000108AEAC
:10090000CDE9080136F81400029035F834000AAB3E
:10091000000A8DF8000015F834008DF8010005EB91
:10092000C4006A464188090A8DF8021081788DF862
:1009300003108188090A8DF8041001798DF80510DB
:10094000C188090A8DF8061080798DF8070002A980
:10095000384600F08DF9641CE4B2022CD2D30BB0FF
:10096000F0BD00001C40000800EE100A06480749D0
:10097000B8EEC00A80ED010AB1F9621000EE101A5B
:10098000016EB8EEC00A0847D00200209000002097
:100990002DE9F04700252DED028B84B0194F9FED16
:1009A0001A8ADFED1A8A2E4641F2707841F28839B0
:1009B0004FF4804A05EBC50000EB051007EB8004FF
:1009C000204603F0EDFACDE9006820460296A46DBA
:1009D000F0EE481AB0EE681AF7EE080AB2EE040A12
:1009E0004B4652460121A0476D1C022DE2DB084810
:1009F00080ED008A80ED018A04B0BDEC028BBDE879
:100A0000F0870000B001002000000000CDCCCC3DFC
:100A100008000020014800F01FBD00000404002071
:100A200001681823CAB2103AB2FBF3F2054B6FF318
:100A30000901032A9B5CC36500D9091D816508462D
:100A4000704700002243000810B5014600208B6962
:100A50008A6A4FF0C07453B1B3F5005F15D072B11C
:100A6000012A0CD0022A0AD0032A09D104E01AB1C3
:100A7000012A06D0022A03D1C96AC90100D5012082
:100A800010BDC96AA142FAD010BD002AF7D0012AD0
:100A9000F2D0022AF3D0032AF3D010BD30B5046897
:100AA000256825F480252560046863608368402BF1
:100AB000036803D099600068C26030BD9A60006826
:100AC000C16030BD7047000038B5044600680D466F
:100AD0000068C00669D5606B0068016821F00101FB
:100AE0000160204602F0A2F93048844203D1C821B7
:100AF0002F48FFF7AFFB606B02682E4882420AD096
:100B00002D48824207D02B486030824203D02A48C9
:100B10006030824201D1202022E026491831C814D9
:100B20008A421DD0244918318A4219D0214978318E
:100B30008A4215D0204978318A4211D01D4980025D
:100B400030318A420CD01C4930318A4208D01949D0
:100B500090318A4204D0184990318A4200D08001F5
:100B6000154948318A4202D91349091F05E0114944
:100B7000A8318A4203D910490839086008E00D4BB2
:100B80000C49483310399A4201D9C86000E08860A6
:100B9000606B00684560606B0068016841F00101AE
:100BA0000160206801684068009038BDC4030020DF
:100BB00064040020106002401064024072B6FEE738
:100BC00010B558B1084C491E0BD310F8013B5340E7
:100BD000DBB234F8133083EA1222F4E74FF6FF70E9
:100BE00010BD104610BD00002241000810B5064C93
:100BF00004E000BF10F8013B5340E25C491E89B29B
:100C0000F8D2104610BD0000224000080B4A002117
:100C100011600278012A01D1094B1A704378094A00
:100C200053B1012B08D0022B06D0032B04D0117036
:100C300005498078487070471370F9E7300000204C
:100C400012000020270000202500002090F820201E
:100C5000012A07D0022A05D0416A41F4802141626D
:100C600001207047006842690A43426100207047D2
:100C7000F0B590F820500468A468012D05D0022D2D
:100C800003D0416A41F4802153E014F0406F01D158
:100C9000E5004BD5C4F30164022C03D9416A41F449
:100CA000000146E00125A5401D608D684FF4C0732A
:100CB0009DB1CE6835434E6845EAC605066803EB2C
:100CC0000417F5514FF4C275076805EB04150E695A
:100CD0007E51097D012905D009E00E88CD6845EADD
:100CE0004655EBE701684E5946F480764E5111792E
:100CF000D2F805504FF4C67641EA0525016806EBA7
:100D000004168D511178D2F801204FF4C47541EAD0
:100D10000221026805EB04155151006803EB041130
:100D2000425842F0010242500020F0BD416A41F4B5
:100D3000001141620120F0BD10B590F82020012A79
:100D400007D0022A05D0416A41F480214162012086
:100D500010BD3B48D0F8002242F00102C0F800224A
:100D6000D0F8002222F47C52C0F80022D0F80022F1
:100D70004B6A42EA0322C0F800220A7D02F01F03F8
:100D800001229A40D0F81C329343C0F81C32CB6940
:100D9000B3B9D0F80C329343C0F80C328C894B684D
:100DA00064F31F434C6900EBC404C4F840320C895F
:100DB0000B6864F31F434C6900EBC404C4F844326D
:100DC000CB69012B16D1D0F80C321343C0F80C328A
:100DD0000C884B6864F31F434C6900EBC404C4F8EF
:100DE00040320C89CB6864F31F434C6900EBC404A8
:100DF000C4F844328B69002BD0F804320ED0134370
:100E0000C0F804320B69002BD0F8143208D0134319
:100E1000C0F81432096A012904D008E09343EFE7CF
:100E20009343F5E7D0F81C121143C0F81C12D0F818
:100E3000001221F00101C0F80012002010BD0000D6
:100E400000640040704730B590F82040012C05D078
:100E5000022C03D0416A41F480215DE0046800293E
:100E600055D02469A40754D04FF4D874056804EB16
:100E700001142D5915F00405956005682D594ED0C3
:100E8000ED08556005682C5904F00204D4604FF455
:100E9000DA74056804EB01142D5905F00F0515618E
:100EA00005682D59C5F30725956105682C59240C53
:100EB00054614FF4DC72046802EB0112A4581C70F8
:100EC0000468A458240A5C700468A458240C9C701C
:100ED0000468A258120EDA704FF4DE72046802EB56
:100EE0000112A4581C710468A458240A5C71046897
:100EF000A458240C9C710468A258120EDA71006880
:100F000081B1016941F020010161002030BDE46838
:100F1000A8E7416A41F400114162012030BD6D0D26
:100F20001560AFE7C16841F02001C160EDE72DE930
:100F3000F05F0546006800244669D0F80490876891
:100F4000D0F80CB0D0F810A0D0F81880F10748D035
:100F5000F90714D001218160B80703D5284600F0B5
:100F600062FA0CE0780702D54FF4006407E0380716
:100F700002D54FF4805402E0284600F053FAF805F9
:100F800016D529684FF480708860B80503D52846C7
:100F900000F04BFA0CE0780502D544F4005407E069
:100FA000380502D544F4804402E0284600F03CFABB
:100FB000F80316D529684FF480308860B80303D54C
:100FC000284600F034FA0CE0780302D544F40044DB
:100FD00007E0380302D544F4803402E0284600F0EC
:100FE00025FA300707D55FEACB6004D529681020C1
:100FF00044F40074C86070074FF0080707D55FEA33
:101000000B7004D52868C760284600F0A9F9B0071E
:1010100006D52868C068800702D0284600F0A2F9EB
:10102000700607D55FEACA6004D52968102044F429
:1010300080640861B00607D55FEA0A7004D52868A5
:101040000761284600F0BEF9F00606D52868006959
:10105000800702D0284600F0B6F9B00308D55FEA51
:10106000C96005D5296810204860284600F0ACF911
:10107000F00307D55FEA097004D528684760284661
:1010800000F0D6F9300446D55FEA497040D5F00546
:1010900004D55FEAC87001D044F00104B00504D55E
:1010A0005FEA887001D544F00204700504D55FEA58
:1010B000487001D544F00404300529D518F0700FAC
:1010C00026D008F07000402815D006DC102809D082
:1010D00020280AD0302816D10AE050280ED06028E7
:1010E00011D10EE044F008040DE044F010040AE0D1
:1010F00044F0200407E044F0400404E044F080049D
:1011000001E044F480742868816921F070018161F4
:10111000296804204860002C05D0686A2043686272
:101120002846FFF78FFEBDE8F09F70B5040003D09E
:1011300094F8200010B104E0012070BD204600F0BA
:1011400081F82068016821F00201016000F0D6FBFF
:101150000546052604E000F0D1FB401B0A2811D803
:10116000206840688007F6D42068016841F00101DA
:10117000016000F0C3FB05460BE000F0BFFB401B25
:101180000A2806D9606A40F40030606284F8206062
:10119000D2E720684068C007EFD0207E0128206891
:1011A00001683DD021F080010160607E0128206847
:1011B000016838D021F040010160A07E012820683C
:1011C000016833D021F020010160E07E0128206811
:1011D00001682ED041F010010160207F01282068B5
:1011E000016829D021F008010160607F0128206892
:1011F000016824D021F004010160D4E90201084310
:10120000D4E90412114308436168491E0843216868
:10121000C86100206062012084F82000002070BDB9
:1012200041F08001C0E741F04001C5E741F02001F5
:10123000CAE721F01001CFE741F00801D4E741F0FF
:101240000401D9E7F0B587B0044614216846FFF7DA
:1012500001F83E4B3E48DFF8F0E01968D4F800C0D2
:101260003B4A03250226092710300024491CF44577
:101270002AD11960012907D1016841F0007101608C
:10128000006800F000700590106840F008001060E1
:101290001068CDE9005600F00800CDE904706946F9
:1012A0002C48CDE9024500F047FA022211461320EE
:1012B00000F094FB132000F083FB03220221142092
:1012C00000F08CFB14203AE0DFF88CE0F44538D1D4
:1012D000D0F800C04CF0806CC0F800C0D0F800C05E
:1012E00001290CF0806CCDF814C0196007D1016899
:1012F00041F000710160006800F000700590106816
:1013000040F002001060106802AB00F0020005908F
:101310006020CDE9000683E8B00069460F4800F080
:101320000BFA012211463F2000F058FB3F2000F04D
:1013300047FB02220121402000F050FB402000F03A
:101340003FFB07B0F0BD0000006400402C0000200F
:1013500030380240000C02400068004000040240A7
:101360007047000010B58AB0044607AB6A460021FA
:10137000FFF769FD1048844212D10098A0F20120C5
:101380000A280BD800980D4900EB400001EBC00083
:10139000A0F5405007A9183802F014FD0AB010BD9E
:1013A00007488442FAD10098A0F580710139F5D13F
:1013B00007A8FFF72BFCF1E75C030020900000205A
:1013C00034030020704770477047000070B5044632
:1013D00090F82000012804D0606A40F40020606288
:1013E00018E0022084F820002068016821F0010143
:1013F000016000F083FA05460EE000BF00F07EFABF
:10140000401B0A2808D9606A40F400306062052059
:1014100084F82000012070BD20684068C007EDD12D
:10142000606270BD70477047704770477047704783
:10143000704790F83510022903D0802141650120C2
:101440007047052180F835100068016821F001011E
:1014500001600020704700002DE9F84304464FF07A
:101460000009CDF8009063484FF41651A56D00684F
:10147000B0FBF1F72E6894F85C10082000FA01F137
:1014800031420FD021680A6852070BD50A6822F052
:1014900004020A6094F85C108840A860606D40F017
:1014A0000100606594F85C104FF0010808FA01F043
:1014B000304208D021684969090604D5A860606DEA
:1014C00040F00200606594F85C10042088403042CF
:1014D00008D021680968890704D5A860606D40F0CC
:1014E0000400606594F85C1010208840304218D0E9
:1014F00021680968090714D5A860206801684903B4
:1015000004D50068000308D5A16C07E00168C9058F
:1015100003D4016821F008010160216C09B1204663
:10152000884794F85C1020208840304231D02168F0
:101530000968C9062DD5A86094F8350005282068EB
:10154000016806D0490347D5006800031DD4616CCB
:101550001CE021F0160101602068416921F0800142
:101560004161206C08B9A06C20B12068016821F0AD
:101570000801016094F85C103F208840A86084F85E
:10158000349084F83580216D1FE0E16B09B120466D
:101590008847606D00282BD0606DC00714D00520EF
:1015A00084F835002068016821F00101016000988D
:1015B000401C0090B84203D820680068C007F6D1EC
:1015C00084F8349084F83580E16C002910D001B0A3
:1015D0002046BDE8F04308470168C905D5D4016835
:1015E00021F01001016084F8349084F83580CCE754
:1015F000BDE8F883700000202DE9F041044600F0BA
:101600007DF906465CB1002584F83450022084F848
:1016100035002068016821F0010101600DE0012022
:10162000BDE8F08100F06AF9801B052805D920206B
:101630006065032084F83500F2E720680068C00781
:10164000F0D12268116820480140D4E90103184311
:10165000D4E903363343184363691843A369184335
:10166000E3691843236A18430843616A042903D1D4
:10167000D4E90B1319430843106020684069666A77
:1016800020F0070130460E43012704280CD1A06A40
:101690000643E06A40B12046FFF7D6F920B140206A
:1016A000606584F83570BAE7206846612046FFF728
:1016B000B7F994F85C203F2191408160656584F81A
:1016C00035700020ACE700003F8010F070B5044694
:1016D00090F83400002501280CD0012084F8340053
:1016E00094F835600020012E06D084F834000225DD
:1016F000284670BD022070BD022684F83560606502
:101700002046FFF7CBF92068016841F00101016034
:10171000EEE7000070B5044600F0F0F80546601CE6
:1017200002D004480078044400F0E8F8401BA042CE
:10173000FAD370BD640000202DE9F84F00224FF06D
:10174000010803254FF00F0E0B6808FA02F423403E
:10175000A3426ED14E68012E05D0022E03D0112E69
:1017600001D0122E12D186684FEA420C05FA0CF70E
:10177000BE43CF6807FA0CF7374387604668A64335
:101780000C79C4F30014944034434460C668570095
:1017900005FA07FC8C6826EA0C06BC403443C4609A
:1017A0004C68022C01D0122C13D1D40800EB840415
:1017B000A346D4F8209054074FEAD46A0EFA0AF6EA
:1017C00029EA06090E6906FA0AF646EA0906CBF87E
:1017D000206006680C7926EA0C0604F00304BC407D
:1017E000344304604C68E40065D5364C266846F402
:1017F00080462660246822F0030604F480440094A6
:10180000314C3444A446D4F808489607370F0EFAF2
:1018100007F6B4432D4EB04201D1002624E02C4EF1
:10182000B04201D101261FE02A4EB04202D1022669
:101830001AE040E0284EB04201D1032614E0274EC2
:10184000B04201D104260FE0254EB04201D1052659
:101850000AE0244EB04201D1062605E0224EB042F5
:1018600001D1072600E00826BE402643CCF80868D0
:101870001E4E34684F689C43FF0300D51C43346000
:101880001A4C241D26684F689E43BF0300D51E4393
:101890002660164E083634684F689C43FF0200D518
:1018A0001C433460114E0C3634684F689C43BF02B1
:1018B00000D51C433460521C102AFFF445AFBDE82C
:1018C000F88F000044380240003001400000024020
:1018D0000004024000080240000C024000100240D8
:1018E0000014024000180240001C0240003C01406D
:1018F0000069084000D0012070470000014880685E
:10190000704700006400002002488168027811449A
:1019100081607047640000200B4810B5016841F4F5
:1019200000710160016841F480610160016841F467
:1019300080710160032000F071F8002000F006F8CB
:1019400000F024F8002010BD003C024070B50D4DA1
:1019500004464FF47A712878B1FBF0F00A4909681F
:10196000B1FBF0F000F006FB48B9102C07D20022C2
:101970002146501E00F032F800206C6070BD01203E
:1019800070BD000064000020700000200B4882B091
:10199000016841F480410160006800F480400090DB
:1019A0000648001F016841F080510160006800F0A6
:1019B00080500090052002B000F030B8443802405A
:1019C000002809DB00F01F0201219140400980003E
:1019D00000F1E020C0F8001170470000F0B40E4B99
:1019E0001B680C46C3F30223C3F10705042D00D97D
:1019F0000425191D072901D2002300E0DB1E012662
:101A000006FA05F1491E214099409E40761E164077
:101A10003143F0BC01F09BBB0CED00E0064900F047
:101A2000070208684FF6FF03184040EA0220034A05
:101A300010430860704700000CED00E00000FA055C
:101A40002DE9F0470E46050065D0DFF81481D8F87F
:101A50000000F7B200F00F00B04207D288F8007023
:101A6000D8F8000000F00F00B04254D128683D4C77
:101A7000810712D5400703D5206840F4E05020606C
:101A80002878000703D5206840F460402060206873
:101A9000A96820F0F000084320602878C0072DD006
:101AA000304968680839012812D0022813D0032869
:101AB00011D00968890700292DDA216821F0030176
:101AC00001432160FFF71AFF814641F2883A0EE098
:101AD00009688903EFE709688901ECE7FFF70EFF62
:101AE000A0EB0901514502D90320BDE8F087206829
:101AF000696800F00C00B0EB810FEFD1D8F800104E
:101B0000404601F00F01B14207D90770006800F0AC
:101B10000F00B04201D00120E7E72878400705D543
:101B20002068E96820F4E050084320602878000726
:101B300006D52068296920F4604040EAC100206091
:101B400000F038F82168084AC1F30311515CC8401D
:101B50000649086006480068FFF7F8FE0020C4E761
:101B6000003C0240083802402A4300087000002070
:101B7000680000200448054900680968044AC1F368
:101B80008221515CC8407047700000200838024034
:101B90003A4300080448054900680968044AC1F34B
:101BA0004231515CC8407047700000200838024044
:101BB0003A430008154810B5006810F00C021448AC
:101BC00013D01449042A0FD0082A0ED10F4C241F19
:101BD0002268236802F03F025B0207D52068C0F349
:101BE0008810A0FB010106E0084610BD2168C1F382
:101BF0008811A1FB00010023FEF7E2FA2168C1F37E
:101C00000141491C4900B0FBF1F010BD0838024009
:101C10000024F400001BB7002DE9F84F04006ED03B
:101C20002078DFF83C93C007A9F104054AD009F1F8
:101C300004000168C1F38101012908D00068C0F3E4
:101C4000810002280AD1D9F80000400206D5286890
:101C5000800337D560680028E1D033E06068B0F5D4
:101C6000803F10D0B0F5A02F286810D020F480302D
:101C70002860286820F4802028606068A8B1FFF7F9
:101C80003DFE06460DE0286840F48030F4E740F45D
:101C900080202860F7E700BFFFF730FE801B642834
:101CA00073D828688003F7D50CE0FFF727FE0646B7
:101CB00005E000BFFFF722FE801B6428F0D82868EB
:101CC0008003F7D42078DFF89C8280074FF0000A69
:101CD0003ED5A348001D016811F00C0F08D0006824
:101CE000C0F3810002280BD1D9F80000400207D4CC
:101CF0002868800716D5E068012800D112E02BE1A2
:101D0000E068B8B10120C8F80000FFF7F7FD06460B
:101D100005E000BFFFF7F2FD801B0228C0D828684D
:101D20008007F7D52868216920F0F80040EAC10053
:101D300028600DE0C8F800A0FFF7E0FD064604E0CB
:101D4000FFF7DCFD801B02281FD828688007F7D426
:101D50002078000722D5824E83486169703671B1C0
:101D600001210160FFF7CAFD074604E0FFF7C6FD49
:101D7000C01B022809D830688007F7D50EE0C0F8EC
:101D800000A0FFF7BBFD074605E082E0FFF7B6FDC8
:101D9000C01B02287DD830688007F7D42078400720
:101DA00068D5DFF8BCB100270BF13C0BDBF8000075
:101DB000C0000BD4DBF8001041F08051CBF80010CC
:101DC000DBF80000012700F080500090674E30687B
:101DD000C00510D4306840F480703060FFF78EFD8D
:101DE000009005E0FFF78AFD0099401A022850D8BC
:101DF0003068C005F6D55A4EA0686C3601280FD061
:101E00000528306810D020F001003060306820F0E4
:101E100004003060A068B8B1FFF770FD00900FE0DB
:101E2000306840F00100F4E740F004003060F7E76C
:101E3000FFF764FD0099411A41F28830814266D86B
:101E400030688007F4D50EE0FFF758FD009007E0FA
:101E5000FFF754FD0099411A41F28830814256D86B
:101E600030688007F4D42FB1DBF8001021F08051E6
:101E7000CBF80010A069C8B33949091D0968C1F33E
:101E8000810102294AD00228504607D0C8F86000D4
:101E900000E03CE0FFF732FD04463BE04746C8F86F
:101EA0006000FFF72BFD064605E000BFFFF726FDAB
:101EB000801B02282BD828688001F7D4D4E90701B9
:101EC0000843A16A2A4A490802EB0141626A41EAD1
:101ED0008211084394F82C1040EA0161C9F80010FF
:101EE00001203866FFF70AFD044606E036E000BF31
:101EF000FFF704FD001B022809D828688001F7D5E8
:101F00002CE000BFFFF7FAFC001B022802D90320D7
:101F1000BDE8F88F28688001F4D41FE00128F7D0CD
:101F2000D9F80000E26900F48001914214D1226ADC
:101F300000F03F0191420FD147F6C071626A014043
:101F4000914209D1A26A00F44031914204D1E16A80
:101F500000F07060884201D00120D9E70020D7E767
:101F60000438024000004742800E474200700040A3
:101F70000000FFFF10B5401EB0F1807F01D30120AB
:101F800010BD4FF0E02460610F21601701F0DFF811
:101F90000020A06107202061002010BD704770471D
:101FA00070B590F83C20012A32D0012480F83C40E2
:101FB000022280F83D2003685A689D6822F070066E
:101FC0000A6832435A60134B02689A4214D0B2F145
:101FD000804F11D0104B9A420ED0104B9A420BD02A
:101FE0000F4B9A4208D00F4B9A4205D00E4B9A42A3
:101FF00002D00E4B9A4204D1496825F08003194360
:10200000916080F83D40002180F83C10084670BD8A
:10201000022070BD000001400004004000080040A4
:10202000000C004000040140004001400018004046
:1020300010B5040003D094F83D0010B107E0012072
:1020400010BD002084F83C00204600F00DF802206E
:1020500084F83D00211D206800F038FE012084F83E
:102060003D00002010BD000008B500680B49884203
:1020700012D10B48016841F00101016000680122A2
:1020800000F00100009002211920FFF7A7FCBDE835
:1020900008401920FFF794BC08BD00000000014073
:1020A000443802400168CA6842F00102CA60006810
:1020B000816801F00701062903D0016841F00101A0
:1020C00001600020704770B5044690F83C0001287C
:1020D00017D0012584F83C50022084F83D00206888
:1020E000826822F0770222F47F42826008685028DA
:1020F00030D00DDC20284DD005DC98B310283BD122
:1021000048E0022070BD302844D0402834D139E066
:10211000602828D0702806D0B0F5805F2CD0B0F5AC
:10212000005F29D10AE0CB68D1E90121206800F0E5
:1021300031FE2068816841F0770109E0CB68D1E980
:102140000121206800F026FE2068816841F480416A
:10215000816011E0CA684968206800F02DFE5021B6
:10216000206807E016E0CA684968206800F035FE7C
:102170006021206800F018FE84F83D50002084F8AB
:102180003C0070BDCA684968206800F015FE402117
:102190002068EFE7226801461046EBE7704770B50C
:1021A0000446006801694FF00005C943890715D44A
:1021B000C168C943890711D4E91E01610120207754
:1021C000206880698007204602D0FFF7E7FF04E01F
:1021D00000F098F8204600F096F82577206801690D
:1021E000C943490717D4C168C943490713D46FF0DD
:1021F00004010161022020772068806910F4407F8B
:10220000204602D0FFF7CAFF04E000F07BF820462A
:1022100000F079F8257720680169C943090716D4C9
:10222000C168C943090712D46FF008010161042095
:1022300020772068C0698007204602D0FFF7AEFFF4
:1022400004E000F05FF8204600F05DF82577206894
:102250000169C943C90617D4C168C943C90613D463
:102260006FF010010161082020772068C06910F428
:10227000407F204602D0FFF791FF04E000F042F8D3
:10228000204600F040F8257720680169C943C90756
:1022900008D1C168C943C90704D1891E016120461C
:1022A00000F032F820680169C943090609D4C16801
:1022B000C943090605D46FF0800101612046FFF78C
:1022C0006DFE20680169C943490609D4C168C94344
:1022D000490605D46FF040010161204600F015F871
:1022E00020680169C94389060BD4C168C9438906BE
:1022F00007D46FF0200101612046BDE87040FFF770
:102300004EBE70BD70477047704770477047000001
:1023100070B5026804461068D168536910F00F0F59
:1023200052D003F0010501F490762E435FD0C2072E
:1023300005D0CA0503D5E26B42F00102E263420711
:1023400005D5DA0703D0E26B42F00202E2638207AE
:1023500005D5DA0703D0E26B42F00402E26302071C
:1023600007D501F020022A4303D0E26B42F00802B5
:10237000E263E26B002A33D0800604D5880602D5DA
:10238000204600F069FD20684069E16BC0F38010D1
:10239000090700D428B3204600F039FD20684169C0
:1023A00049061AD5416921F040014161606BA0B135
:1023B0001B490165606BFFF73CF8002810D0606B8B
:1023C000016DBDE870400847830610D58B060ED519
:1023D0002046BDE8704000F03FBD2046FFF796FF65
:1023E00070BD2046FFF792FF0020E06370BD03063A
:1023F00006D50B0604D52046BDE8704000F00CBEA3
:102400004006F3D54806F1D5D168204621F04001B9
:10241000D160202184F8391000F093F870BD0000DD
:10242000FF2D000870B5040004D094F83900002591
:1024300010B106E0012070BD84F83850204600F04D
:1024400023F8242084F839002068C16821F4005161
:10245000C160204600F04CFD2068016921F49041E4
:1024600001612068416921F02A0141612068C16849
:1024700041F40051C160E563202084F8390084F8FC
:102480003A00002070BD0000F0B587B00646142168
:102490006846FDF7DFFE25493068884244D124486C
:1024A0000025016841F020010160006800F0200073
:1024B00005901F481438016841F040010160006830
:1024C00001A900F0400005904FF4844000900220E4
:1024D000032781E8A1000820049069461548FFF70A
:1024E0002BF9164C144820608005C4E901054FF40F
:1024F0008060C4E903506561A5610420E561C4E919
:102500000850C4E90A7520462563FFF775F808B13D
:10251000FEF754FB7463032201214720A663FFF7F3
:102520005DFA4720FFF74CFA07B0F0BD00140140F8
:10253000443802400018024028640240040400208D
:1025400070477047FEE700002DE9F04104004FF0AE
:10255000000609D0634D2068C5F819002079687716
:102560002078A52803D0B9E00120BDE8F08105213D
:10257000204600F0BFFD0127012837D161782046B1
:10258000093100F099FD012830D1B4F80500012689
:1025900040F201235449A0F20122984250D016DCA7
:1025A00005282FD008DC01281AD002281CD00328C7
:1025B0001DD004281AD11FE0A0F5807001382ED05C
:1025C000012831D0032834D0042879D135E00A2AF3
:1025D00076D2DFE802F0753A3F46494E545E666BAC
:1025E000D4F80700086011E0E079A87068E03E4880
:1025F0002022E11D0B3031E0B4F807006881607AD9
:1026000028735DE0D4F8070041F82B0FD4F80B00D5
:102610004860B4F80F000881607C887250E0D4F8FC
:102620000700C5F80D004BE0D4F80700C5F811000D
:1026300046E0B4F80700288142E0E079E8703FE026
:1026400029481B22E11D363008E027481022E11DF1
:10265000513003E024481022E11D6130FDF7E1FD17
:102660002EE0E07928712BE0B4F80700A5F805000A
:1026700026E0E079A871000922D16F7020E0D4F83B
:1026800007006862B4F80B002885607B85F82A0093
:1026900016E0D4F80700C5F81E00B4F80B006884F3
:1026A0000EE0D4F80700C5F8150009E0D4F80700DB
:1026B00041F8710FD4F80B004860D4F80F0088601F
:1026C000084809341930B0F80100015DA52902D18C
:1026D0002044FFF739FF0EB12F7001E00020287071
:1026E000304642E7340000202C050020104810B589
:1026F0000E4901600321416000214FF400228160F6
:10270000C0E903124FF440124261017641768176AE
:102710000122C27601774177FEF707FD002803D03A
:10272000BDE81040FEF74ABA10BD0000006400404A
:1027300034030020104810B50E49016003214160A8
:1027400000214FF400228160C0E903124FF44012CF
:1027500042610176417681760122C2760177417726
:10276000FEF7E3FC002803D0BDE81040FEF726BAD0
:1027700010BD0000006800405C030020094808B557
:10278000016841F4800101600068002200F48000CB
:10279000009011463920FFF721F9BDE808403920A3
:1027A000FFF70EB93038024000B587B014216846F3
:1027B000FDF750FD1E480021026842F0020202604F
:1027C000026802F002020592026842F040020260D2
:1027D000026802F040020592026842F001020260C3
:1027E000026802F001020592026842F008020260EB
:1027F000026802F008020592026842F0800202605C
:10280000026802F080020592026842F01002026043
:102810000068029100F0100005904FF4D440CDE91B
:10282000000169460348FEF787FF07B000BD0000BE
:10283000303802400010024010B586B0002417481E
:102840000094019402940394049413490594016044
:102850005321C0E9011441F28731C0E903144461F6
:102860008461FFF7E5FB08B1FEF7A8F94FF480504B
:10287000009069460948FFF726FC08B1FEF79EF96B
:10288000049404A905480594FFF78AFB002801D0A9
:10289000FEF794F906B010BD00000140840300204B
:1028A0000C4810B50A4901604FF4E1314160002144
:1028B00081600422C160C0E904128161C161FFF737
:1028C000B1FD002803D0BDE81040FEF777B910BD78
:1028D00000140140C4030020FEE7FEE77047704784
:1028E00070B53A4C05462DED088B6068854266D080
:1028F0002288521C96B22680B6F5FA7F5CD2002858
:102900009FED33BB9FED34AB08462CD0FDF79FFD08
:1029100041EC190B3046FDF79AFD53EC1B2BFDF7EC
:1029200016FD53EC1A2BFDF7A0FC41EC100B00F048
:102930001FFCB0EE408AF0EE608A6068FDF776FD1D
:1029400053EC182BFDF791FC53EC192B41EC100BB9
:1029500051EC100BFDF789FCFDF786FD00EE100A27
:10296000BDEC088B70BDFDF772FD41EC180B3046D5
:10297000FDF76DFD53EC1B2BFDF7E9FC53EC1A2B17
:10298000FDF773FC9FED161B53EC112BFDF76DFC4F
:1029900041EC100B00F050FCB0EE409AF0EE609A63
:1029A0002846FDF743FD53EC192BFDF75EFC41EC87
:1029B000100B53EC182BCBE70020656020804D43B3
:1029C00000EE105AB8EEC00ACAE70000000000206E
:1029D0000000000000407F4000000060FB21094033
:1029E000000000000000E03FFEF78EBF30B593B05E
:1029F00030216846FDF72EFC14210CA8FDF72AFCB7
:102A00001D480025016841F080510160006800F018
:102A1000805011901948016841F4804101600068BC
:102A2000022400F4804011900120009000040190E5
:102A30008001CDE9064006200890A820CDE90904D0
:102A400004200B906846FFF7E7F808B172B6FEE77E
:102A50000CA90F2081E831004FF4A0500F904FF4E3
:102A60008050109005210CA8FEF7EAFF002801D045
:102A700072B6FEE713B030BD40380240007000402F
:102A80000548016841F47001016003494FF000609E
:102A9000803908607047000088ED00E02DE9F05FA4
:102AA0007649DFF8DC81DFF8DCB108680024401CDF
:102AB0000860C82803D98BF8004088F800407248A5
:102AC000FFF76DFB00F0E6FADFF8C0914FF40071FC
:102AD0004846FEF70DFF6E4E6E4D6F4F4FF0010AE8
:102AE00030B14FF400614846FEF702FF50B111E0EB
:102AF00034602868401C286014280BD14FF0FF3048
:102B0000386007E03068401C30602C60142801D128
:102B1000C7F800A098F80000604EDFF88481DFF865
:102B20008491614D012837D06049204681F800A08A
:102B300000213C60FFF7D4FE86ED1A0A86ED010AFB
:102B4000B24600274646F05D00EB400109EBC100AC
:102B5000B0F9020000EE100A07EBC70000EB071106
:102B60000AEB8100B8EEC00A016E8847F05D7F1C59
:102B7000FFB225F81040022FE5D34D484D499BF890
:102B80000020008949894C4E401A012A34D0022A7B
:102B900050D0032A61D152E04848008881B2386899
:102BA000FFF79EFE86ED1A0A86ED010A0027B2465F
:102BB00018F8070000EB400109EBC100B0F9020072
:102BC00000EE100A07EBC70000EB07110AEB8106C5
:102BD000B8EEC00A316E3046884796ED0C0A18F8F8
:102BE00007107F1CBDEEC00AFFB2022F10EE100AC4
:102BF00025F81100DCD3C0E70A282EDD30498BF818
:102C000000404FF4B47208882D30B0FBF2F302FBA1
:102C10001300088000EE100A2A49B9F96220D9EDA4
:102C20001D0AB8EE400AA1F12C0000F09FFF86EDCE
:102C30000C0A16E01E2810DD4FF47A7003E03228EB
:102C40000BDD4FF4FA60FDF78FFE96ED0C0ABDEE3A
:102C5000C00A10EE100A288103E00020FDF784FE70
:102C60002C8111491848FDF73DFE002025F8104041
:102C7000401CC0B20C28F9D3BDE8F09F3000002002
:102C800012000020270000208403002000100240D2
:102C90001C0000201800002014000020B0010020BB
:102CA0001000002090000020780000202400002068
:102CB000620500207D050020D002002020000020B9
:102CC00028000020A40200205C030020F0B5026868
:102CD000254C264D264E274F274B4FF0804CA042C7
:102CE00009D0604507D0A84205D0B04203D0B84211
:102CF00001D0984204D122F0700E4A6842EA0E02D6
:102D0000A0421BD0604519D0A84217D0B04215D0C0
:102D1000B84213D0984211D0184DA8420ED0184D89
:102D2000A8420BD0174DA84208D0174DA84205D095
:102D3000164DA84202D0164DA84203D122F4407588
:102D4000CA682A434D6922F080022A4302608A68D9
:102D5000C2620A688262A04201D0984201D1096928
:102D6000016301214161F0BD000001400004004009
:102D700000080040000C00400004014000400140F9
:102D8000004401400048014000180040001C004081
:102D90000020004010B5846842EA032224F47F44F6
:102DA0000A432243826010BD826822F070020A4307
:102DB00042F007018160704710B5036A046A24F08D
:102DC00001040462846924F0F00444EA021423F04C
:102DD0000A020A438461026210BD10B5036A23F03F
:102DE000100303628369046A23F4704343EA0232E6
:102DF00024F0A00343EA01118261016210BD10B505
:102E0000806B0021C185C184FFF780FA10BD016885
:102E1000CA6822F49072CA6001684A6922F001020D
:102E20004A61202180F83A1070470000074910B528
:102E3000884209D1C82206490648FDF7F2F9BDE8E3
:102E400010400348FFF780BB10BD0000C403002002
:102E500064040020A905002010B590F83A1022293A
:102E600001D0022010BD8168B1F5805F11D00169E9
:102E7000002901681FD0496801F07F03816A4A1C5C
:102E800082620B70C18D491E0904090CC18518D0DE
:102E90002BE00269816A002A0268526805D0D2B22A
:102EA0000A80816A491C8162ECE7C2F308020A8049
:102EB000816A891CF7E74A68816A4B1C83620A7041
:102EC000E0E70168CA6822F02002CA600168CA68A7
:102ED00022F48072CA6001684A6922F001024A61E4
:102EE000202180F83A10FFF72BFB002010BD0000D6
:102EF0002DE9F041044600680169E26821F440517F
:102F0000114301612169A068E269084361691143C5
:102F100008432168CA6849F20C639A430243CA60B5
:102F200020684169A26921F4407111434161E0695F
:102F3000192764253226B0F5004F354A35492068F7
:102F40004FF0000806D0884201D0904236D1FEF7FB
:102F500021FE35E0884201D0904202D1FEF71AFEF0
:102F600001E0FEF707FE61684A18A0FB070148EB85
:102F70000803FDF725F90146B0FBF5F00201B1FBAE
:102F8000F5F06FF01803584301EB800006EBC0002A
:102F9000B0FBF5F000F0F80002EB4002B1FBF5F0F9
:102FA000584301EB800006EBC000B0FBF5F000F0E9
:102FB0000700216810448860BDE8F081FEF7DAFD63
:102FC00061688B0F8A00A0FB0701FDF7F9F8014645
:102FD000B0FBF5F06FF01802504301EB800006EBF8
:102FE0000010B0FBF5F000F0F002B1FBF5F002EBE1
:102FF0000012B1FBF5F06FF01803584301EB8000AD
:1030000006EB0010B0FBF5F000F00F00D1E7000078
:10301000001401400010014090F83910212901D01E
:10302000022070478168B1F5805F016A0BD04A1CAD
:103030000262026809785160C18C491E0904090CBA
:10304000C1840ED017E009880268C1F308015160FD
:1030500001690029016A02D0491C0162ECE7891C60
:10306000FBE70168CA6822F08002CA600068C16894
:1030700041F04001C16000207047000010B50448D5
:10308000FFF746F9BDE81040C8210148FDF71CBD17
:10309000C403002010B54FF400510448FEF728FC8B
:1030A000034908B1012800D1087010BD001002408A
:1030B00025000020FEE7000030B50C46050014D0C6
:1030C000022C12D90A48A11E02882846FDF778FD75
:1030D0002919C2B211F8023C9A4206D111F8011C1A
:1030E000B1EB102F01D1012030BD002030BD000018
:1030F0006000002030B50C4605000ED0022C0CD923
:10310000601E81B2FF222846FDF770FD291911F8D3
:10311000011C814201D1012030BD002030BD03B42B
:1031200001984100009850EAC12018BF04204A0DC0
:1031300018BF40F0010040F2FF72B2EB515F08BFD0
:1031400040F00200012808BF052002B070470907BF
:10315000090E002804DB00F1E02080F8001470471D
:1031600000F00F0000F1E02080F8141D704700000F
:1031700010B52F499FED2C1B2DED020B84B0059847
:1031800020F000408842D8BF9DED040B2DDD294979
:10319000884209D1049840B94FF0010000F0D4FCF6
:1031A00000F0A2FC06B010BD05DB9DED040B00F0A5
:1031B0008FFC06B010BD68469DED040B00F0A0F832
:1031C00010F0030004BF9DED021B9DED000B0CD021
:1031D00001280ED09DED021B9DED000B022817D09B
:1031E000012000F0DDFB06B010BD00F0A5FA06B02E
:1031F00010BD9DED021B9DED000B012000F0D0FBEA
:1032000051EC100B81F0004106B041EC100B10BDE9
:1032100000F092FA51EC100B81F0004106B041EC45
:10322000100B10BD000000000000000000000000B6
:10323000FB21E93F0000F07F10B52F499FED2C1BCB
:103240002DED020B84B0059820F000408842DCBFD1
:1032500000209DED040B32DD2849884209D10498F5
:1032600040B94FF0010000F06FFC00F03DFC06B0EB
:1032700010BD05DB9DED040B00F02AFC06B010BD6F
:1032800068469DED040B00F03BF810F0030011D0F0
:10329000012818D09DED021B9DED000B02281AD0CD
:1032A00000F04AFA51EC100B81F0004106B041ECFD
:1032B000100B10BD9DED021B9DED000B012000F0D9
:1032C0006FFB06B010BD9DED021B9DED000B00F0E5
:1032D00033FA06B010BD012000F062FB51EC100B78
:1032E00081F0004106B041EC100B10BD0000000061
:1032F0000000000000000000FB21E93F0000F07F1B
:103300002DE9F14F04462DED020B2DED088B8AB00F
:103310009FEDE70B80ED020B139EE74826F000457A
:1033200085420ADC9DED120B002084ED000B0AB0F3
:10333000BDEC088B03B0BDE8F08FE0489FEDE0AB3B
:103340009FEDE1BBA84247DDE14F9FEDE39B9FED81
:10335000E48B9DED120B53EC1A2B51EC100B002E4D
:103360001CDDFDF704FA41EC100BBD4208D053EC14
:103370001B2B51EC100BFDF7FAF9C4E900010BE02F
:1033800053EC192B51EC100BFDF7F1F953EC182B02
:10339000FDF7EDF9C4E900010120C8E7FDF746F9A2
:1033A00041EC100BBD4208D053EC1B2B51EC100B21
:1033B000FDF73CF9C4E900010BE053EC192B51EC8B
:1033C000100BFDF733F953EC182BFDF72FF9C4E977
:1033D00000014FF0FF30AAE7C348A84279DB9DED1A
:1033E000120B51EC100B00F0B5FB41EC180B9FEDEC
:1033F000C00B53EC102BFCF738FF9FEDBF1B53ECB9
:10340000112BFDF713F9FDF7B8F90746FDF70EF894
:1034100041EC190B53EC1A2BFCF727FF53EC182B3C
:10342000FDF7A8F941EC180B53EC1B2B51EC190BD1
:10343000FCF71BFFDFF8C8A241EC100B4FEA155850
:103440000125FA4453EC102B51EC180BFDF78FF9C2
:10345000032DC4E900013DD0C1F30A5005EB45112D
:10346000A8EB00001139814234DA0AEB051BB0EEFB
:1034700048AA9BED000BF0EE68AA53EC102B51EC20
:10348000190BFCF7F2FE41EC1B0B51EC1A0B53EC41
:103490001B2BFDF76CF941EC180B51EC1A0B53EC9C
:1034A000182BFDF764F953EC1B2BFDF760F99BED2E
:1034B000020B41EC1A0B53EC102B51EC190BFCF7DF
:1034C000D4FE53EC1A2BFDF752F941EC100B6D1C96
:1034D000B8E70EE0002EA8BF3846BFF628AF94ED3F
:1034E000000B51EC100B81F00041C4E9000178425F
:1034F0001DE7C6F3130040F4801EC6F30A50A0F285
:10350000F530471100F01F05C5F12000DDF848B087
:1035100008900020069007900520EC467949002D80
:1035200007EB0002794408BF51F8221009D051F886
:10353000223001EB8201AB404A68089922FA01F17E
:103540001943A1FB0E26A1FB0B131A449A4234BF68
:103550000123002303EB06080CEB8003D3E901A64B
:103560000E448E4234BF0121002192448A4411B19D
:10357000924502D903E0924501D2012100E00021E9
:10358000C3E901A641444CF82010011EA0F101003E
:10359000C4DC029800F10050850F0298DDE9036752
:1035A0008000DDF81480FCF741FF41EC1A0B304637
:1035B000FCF74DFF9FED541B53EC112BFCF755FE10
:1035C00041EC1B0B3846FCF742FF9FED511B53ECBF
:1035D000112BFCF74AFE41EC180B4046FCF737FF75
:1035E0009FED4D1B53EC112BFCF73FFE41EC190BEB
:1035F00051EC180B53EC192BFDF718F853EC1B2B5F
:10360000FDF714F853EC1A2BFDF710F8CDE908017B
:10361000002008909DED080B53EC1A2B51EC100B79
:10362000FDF7A5F853EC1B2BFDF7A1F853EC182B75
:10363000FDF79DF853EC192BFDF79CF89FED381B17
:1036400053EC112BFCF711FE9FED370B41EC180BDF
:1036500053EC102B9DED080B51EC100BFCF705FE05
:1036600053EC182BFCF7E2FF9FED310B41EC180BEC
:1036700053EC102B9DED080B51EC100BFCF7F5FDF6
:1036800053EC182BFCF7D2FF41EC100B139810F001
:10369000004F06D06D4251EC100B81F0004141EC1F
:1036A000100B284684ED000B41E6000000000000EE
:1036B0000000000000000000FB21E93F7CD902402F
:1036C00000004054FB21F93F3163621A61B4D03DE0
:1036D000FB21F93F000000000000601A61B4D03DFA
:1036E0007370032E8A19A33BFB21394100000000AF
:1036F00083C8C96D305FE43F000000000000E03F78
:10370000320F0000800E0000000000000000103E9C
:10371000000000000000103C000000000000103A13
:10372000182D4454FB21F93D3326A611460B113CBC
:1037300000000054FB21F93D10B52DED040B2DEDDB
:10374000088B82B0B0EE419AF0EE619A0B9820F0AF
:1037500000449FED4BABB4F1795F11DA9DED0A0B9C
:1037600051EC100BFDF709F8002801BFB0EE4A0A32
:10377000F0EE6A0A02B0BDEC088B04BF04B010BDC5
:103780009DED0A0B53EC102B51EC100BFCF76DFD6B
:1037900041EC180B3C480621B0EE480AF0EE680AEE
:1037A000784400F081F853EC182B51EC100BFCF727
:1037B0005CFD9DED0A0B41EC1B0B53EC192B51ECFE
:1037C000100BFCF752FD41EC190B53EC1B2B51EC89
:1037D000180BFCF74AFD53EC192BFCF7C8FF9FEDC3
:1037E0002C0B41EC190B53EC102B51EC180BFCF784
:1037F0003CFD41EC100B2848844210DA53EC192BA5
:1038000051EC100BFCF7B3FF53EC1A2BFCF7B2FF93
:1038100041EC100B02B0BDEC088B04B010BD1F488A
:10382000A042BCBF9FED1E1B8DED001B06DBA4F567
:1038300000100190002000909DED001B51EC100B3A
:1038400053EC112BFCF793FF9DED000B41EC180B93
:1038500053EC102B51EC1A0BFCF789FF41EC1A0BBF
:1038600053EC192B51EC180BFCF781FF53EC1A2B7E
:10387000FCF780FF41EC100BCCE7000000000000DB
:10388000000000000000F03FA40B0000000000005A
:10389000000000000000E03F3333D33F0000E93F69
:1038A000000000000000D23F70B504462DED028BF1
:1038B0004D1E00EBC500B0EE408AF0EE608A90ED40
:1038C000000B35F0060017D053EC182B51EC100B01
:1038D000FCF7CBFC41EC100B6D1E04EBC50090ED2A
:1038E000001B51EC100B53EC112BFCF79FFE41EC2D
:1038F000100B35F00600E7D1022D36D0042D1CD078
:10390000062D1CBFBDEC028B70BD53EC182B51EC87
:10391000100BFCF7AAFC94ED0A1B53EC112BFCF7DF
:1039200085FE53EC182BFCF7A0FC94ED081B53EC20
:10393000112BFCF77BFE41EC100B53EC182B51ECD8
:10394000100BFCF792FC94ED061B53EC112BFCF7CB
:103950006DFE53EC182BFCF788FC94ED040B53EC34
:10396000102BFCF763FE41EC100B53EC182B51ECC1
:10397000100BFCF77AFC94ED021B53EC112BFCF7B7
:1039800055FE53EC182BFCF770FC94ED001B53EC28
:10399000112BFCF74BFEBDEC028B41EC100B70BD04
:1039A00031B504462DED040B2DED0A8BB0EE41BA76
:1039B000F0EE61BA0B989DED0A0B20F00040B0F1DB
:1039C000795F0DDA51EC100BFFF7A9FB042808BF53
:1039D00000F09AF89DED0A0BBDEC0A8B05B030BDE6
:1039E00053EC102B51EC100BFCF73FFC41EC180B87
:1039F0009DED0A0B53EC182B51EC100BFCF735FC2A
:103A000041EC190B2C48B0EE480AF0EE680A05218B
:103A10007844FFF749FF9FED2ACBB0EE40AAF0EEC5
:103A200060AA9CB353EC1C2B51EC190BFCF71DFC4A
:103A300041EC1C0B53EC1A2B51EC190BFCF715FC49
:103A40009FED210B41EC190B53EC102B51EC1B0B90
:103A5000FCF70BFC53EC192BFCF789FE53EC182BED
:103A6000FCF703FC53EC1B2BFCF781FE53EC1C2BE7
:103A7000FCF77DFE9DED0A1B53EC112BFCF77AFE43
:103A8000BDEC0A8B05B041EC100B30BDFFE753ECE9
:103A90001A2B51EC180BFCF7E8FB53EC1C2BFCF732
:103AA000C5FD53EC192BFCF7E0FB9DED0A1B53EC15
:103AB000112BFCF7BBFDE3E72C0A0000000000001F
:103AC000495555555555C5BF000000000000E03F61
:103AD00010B553EC102B51EC100BFCF7A7FD41EC8B
:103AE000100B10BD000000009FED050B10B553EC4E
:103AF000102B51EC100BFCF72AFC41EC100B10BD05
:103B000000000000000000009FED050B10B553EC15
:103B1000102B51EC100BFCF7A8FB41EC100B10BD67
:103B2000000000000000001002E008C8121F08C1D9
:103B3000002AFAD170477047002001E001C1121F2E
:103B4000002AFBD17047000001490860704700005F
:103B50007400002082B0CDE9000121F00040019006
:103B60009DED000B02B051EC100B704770EE600A37
:103B700010B55E4CB0EEE00A10EE103AC0ED030A4C
:103B8000A3420DDD9FED5A1AF5EEC00AF1EE10FAD0
:103B900002DD30EE410A01E031EE400A80ED030A19
:103BA00090ED000AD0ED030A20EE202A80ED072ACE
:103BB00090ED080A90ED011A01EE200A80ED080A46
:103BC00090ED051AB4EEC10AF1EE10FA06DCB1EE82
:103BD000411AB4EEC10AF1EE10FA01D280ED081AD2
:103BE000520000EE102AB8EEC00ADFED422A20EEA5
:103BF000221ADFED411A81EE210A9FED403A80EE54
:103C0000031A90ED020A20EE410A80ED090A90EDB8
:103C1000081A32EE011A31EE000A80ED0A0A90ED20
:103C2000061AB4EEC10AF1EE10FA06DCB1EE411A42
:103C3000B4EEC10AF1EE10FA01D280ED0A1A00EEDC
:103C4000102AC0ED040AB8EEC00A60EE220A80EE27
:103C5000A10AC0EE030A90ED0A0A30EE600A81ED77
:103C6000030AD1ED000A60EE801AC1ED071AD1ED0A
:103C7000080A91ED011A41EE000AC1ED080A91ED22
:103C8000051AF4EEC10AF1EE10FA06DCB1EE411AA3
:103C9000F4EEC10AF1EE10FA01D281ED081AD1ED6D
:103CA000040A91ED021A70EEC00A60EE810AC1EDBD
:103CB000090A91ED081A31EE811A71EE200AC1ED60
:103CC0000A0A91ED061AF4EEC10AF1EE10FA06DCCA
:103CD000B1EE411AF4EEC10AF1EE10FA01D281ED13
:103CE0000A1A81ED040A91ED0A0A10BD000034435E
:103CF0000000B443DB0F4940000070420000104256
:103D000010B527489FED250A2DED028B84B080ED7C
:103D1000000A9FED248AB5EE000A80ED018A80ED4D
:103D2000020A80ED038A80ED048A9FED1F0A80ED70
:103D3000058A80ED060A9FED1D0A80ED0B0A9FEDB6
:103D40001C0A80ED0C0A80ED0D8A80ED0F8A9FED34
:103D5000190A80ED0E8A80ED100A9FED170A80ED9A
:103D6000110A583000F01CF9002040F68C21CDE9F2
:103D7000000102900A4841F2883358305A00846D9D
:103D8000F0EE481A9FED0D1ADFED0D0AB2EE040AAF
:103D90000121A04704B0BDEC028B10BD9A99193ED9
:103DA00078020020000000000000484200007A4431
:103DB000CDCCCCBD00409C450060EA46CDCC4C3D0E
:103DC0006666A63F10B5B0F9004004810A8853BA70
:103DD00003804A8852BA42808A8852BA828089799E
:103DE0001A1B8171B2F5805F02DDC168491E04E0D3
:103DF00012F5805F02DAC168491CC160A34202DA91
:103E000002F5005101E0A2F50051002901DD0B4649
:103E100000E04B42002A01DD144600E05442A34278
:103E200000DB1146026911444FF4902291FBF2F33A
:103E3000016102FB13114FF4B473594391FBF2F18A
:103E400000EE101AB8EEC00A80ED050A10BD0000A1
:103E5000FDF762FDFEF7CAFDFEF7A6FCFEF78EFC3D
:103E6000FEF744FCFEF766FCFEF7E6FCFEF718FDE5
:103E7000C82209490948FCF7E5FCFCF707FDFCF7F7
:103E800087FDFFF73DFF4FF47A70FDF743FC0448D0
:103E9000FEF708F9FEE7000064040020C4030020D8
:103EA0008403002010B504462DED028BB0EE408A4D
:103EB000C06C2065FDF722FDE06494F85010401AB4
:103EC00084F8540084ED068AD4ED071AC4ED081A6C
:103ED00094ED0C0A84ED0D0A94ED010A30EE480AC7
:103EE00084ED070AB5EEC00AF1EE10FA02DDF0EE3D
:103EF000400A01E0F1EE400A94ED101AF4EEC10A16
:103F0000F1EE10FA46DDD4ED030A20EE801A84EDBE
:103F1000091AD4ED0A0A94ED042A42EE000A30EEA2
:103F2000610AC4ED0A0AD4ED051A60EE211AC4ED47
:103F30000B1A94ED0F0AF4EEC00AF1EE10FA01DD4F
:103F400084ED0A0AD4ED0A0AB1EE400AF4EEC00A82
:103F5000F1EE10FA02D3B0EE600A01E084ED0A0A35
:103F600031EE000A70EE210AC4ED0C0A94ED0E0A3F
:103F7000F4EEC00AF1EE10FA01DD84ED0C0AD4ED86
:103F80000C0AB1EE400AF4EEC00AF1EE10FA01D2CA
:103F900084ED0C0A94ED0C0ABDEC028B10BD000000
:103FA000034981650349C165034901667047000003
:103FB000BD3F000815400008A53E00089DED003AF1
:103FC0009DED022ADDED012AB8EE433A017080ED45
:103FD000113A80ED100A00EE103AB8EE400A80ED7A
:103FE0000F0A00EE102AB8EE400A80ED0E0AB8EE75
:103FF000E20A80ED120AB8EEC20A80ED010A9FEDD6
:10400000040A80ED0C0A0C30C0EC030A7047000073
:10401000000000000C3080EC030A70470002FF0132
:10402000FF02005EBCE2613FDD83C29C7E20A3FDF7
:104030001F419DC3217FFCA2401E5F01E3BD3E6086
:1040400082DC237D9FC1421CFEA0E1BF5D0380DEB8
:104050003C62BEE0025CDF81633D7C22C09E1D436A
:10406000A1FF4618FAA427799BC584DA3866E5BB18
:104070005907DB856739BAE406581947A5FB782646
:10408000C49A653BD987045AB8E6A7F91B45C69878
:104090007A24F8A6441A99C7257B3A6486D85B052A
:1040A000E7B98CD2306EEDB3510F4E10F2AC2F71D8
:1040B00093CD114FADF3702ECC92D38D6F31B2EC06
:1040C0000E50AFF1134DCE90722C6D33D18F0C5238
:1040D000B0EE326C8ED0530DEFB1F0AE4C1291CFEA
:1040E0002D73CA947628ABF517490856B4EA693798
:1040F000D58B5709EBB536688AD495CB2977F4AAC6
:104100004816E9B7550B88D6346A2B7597C94A14F7
:10411000F6A8742AC896154BA9F7B6E80A54D789A9
:104120006B350000891112239B322446AD5736654A
:10413000BF74488CC19D5AAFD3BE6CCAE5DB7EE923
:10414000F7F88110080193331A22A5562C47B7754A
:104150003E64C99C408DDBBF52AEEDDA64CBFFF903
:1041600076E802218B30100299132667AF7634442B
:10417000BD554AADC3BC588ED19F6EEBE7FA7CC8E3
:10418000F5D983310A2091121803A7772E66B5540A
:104190003C45CBBD42ACD99E508FEFFB66EAFDD8C3
:1041A00074C904428D5316619F702004A9153227EB
:1041B000BB364CCEC5DF5EEDD7FC6888E1997AABA3
:1041C000F3BA85520C4397711E60A1142805B337CA
:1041D0003A26CDDE44CFDFFD56ECE9986089FBBB83
:1041E00072AA06638F7214409D512225AB343006AB
:1041F000B9174EEFC7FE5CCCD5DD6AA9E3B8788A63
:10420000F19B87730E6295501C41A3352A24B11689
:104210003807CFFF46EEDDDC54CDEBB962A8F99A42
:10422000708B088481951AA793B62CC2A5D33EE162
:10423000B7F04008C919522BDB3A644EED5F766D3A
:10424000FF7C899400859BB712A6ADD224C3BFF131
:1042500036E0C1184809D33B5A2AE55E6C4FF77D1A
:104260007E6C0AA583B4188691972EE3A7F23CC012
:10427000B5D14229CB38500AD91B666FEF7E744CFA
:10428000FD5D8BB502A499961087AFF326E2BDD0F1
:1042900034C1C3394A28D11A580BE77F6E6EF55CDA
:1042A0007C4D0CC685D71EE597F42880A1913AA3D2
:1042B000B3B2444ACD5B5669DF78600CE91D722FBA
:1042C000FB3E8DD604C79FF516E4A9902081BBB3B1
:1042D00032A2C55A4C4BD7795E68E11C680DF33F9A
:1042E0007A2E0EE787F61CC495D52AA1A3B0388292
:1042F000B193466BCF7A5448DD59622DEB3C700E7A
:10430000F91F8FF706E69DD414C5ABB122A0B99270
:104310003083C77B4E6AD5585C49E33D6A2CF11E59
:10432000780F0006101600061016000000000000AE
:104330000000010203040607080900000000010252
:1043400003040000000000004C5555555555A53F8D
:104350007751C1166CC156BF9015CB19A001FA3E1A
:10436000AD529C804F7E92BEC4B1B4BD9EEE213E44
:10437000D43888BEE9FAA8BD00004054FB21F93FBB
:104380003163621A61B4D03D0000601A61B4D03D5F
:104390007370032E8A19A33B0000002E8A19A33BD9
:1043A000C14920259A837B390000000000000000ED
:1043B0006E83F9A22915444ED15727FCC0DD34F590
:1043C000999562DB4190433CAB6351FE61C5BBDE16
:1043D0003A6E24B7E0D24D42EA2E49061C92D1092A
:1043E0001CEB1DFE3EA729B1F53582E88444BB2EA7
:1043F00026709CE9417E5FB439D69139F4395383F4
:104400008B5F849C3B28F9BDFF97F81F0F9805DE52
:104410008B112FEF1F6D0A5ACF7E366DB709CB2750
:10442000663F464F2DEA5F9EC7BA27757BF1E5EBE5
:10443000F739073DEA92528AB15FFB6B085D8D1F29
:10444000A6F810111111813FD561C119A0012ABF31
:104450007DFEB157E31DC73EEB9C2B8AE6E55ABEB5
:104460007CD5CF5A3AD9E53D8844000800000020A9
:1044700078000000283B0008004500087800002074
:10448000000A0000383B00080000000000000000A7
:10449000000000000000000000010000010000001A
:1044A0000000000000000000BC020000010000004D
:1044B00000000000000000000000000000000000FC
:1044C00000000000000000000000000000000000EC
:1044D00000000000000000000000000000000000DC
:1044E0000000000000000000FFFF000001000000CD
:1044F00010000000000000000024F4000000000094
:040000050800018965
:00000001FF
