:020000040800F2
:10000000280E00209D010008972B00088927000872
:10001000952B0008850300085D34000800000000EF
:100020000000000000000000000000009B2B000802
:10003000290A000800000000992B0008B52C0008D0
:10004000B7010008B7010008B7010008B7010008B0
:10005000B7010008B7010008B7010008B7010008A0
:10006000B7010008B7010008B7010008B701000890
:1000700061090008B7010008B7010008B7010008CE
:10008000B7010008B7010008B70100089503000890
:1000900089030008B7010008B7010008B70100088C
:1000A000B7010008592D0008B7010008B701000882
:1000B000B7010008B7010008B7010008B701000840
:1000C000B7010008B7010008B7010008B701000830
:1000D000B7010008F1330008B7010008093400082F
:1000E000B7010008B7010008B7010008B701000810
:1000F000B7010008B7010008B7010008B701000800
:10010000B7010008B7010008B7010008B7010008EF
:10011000B7010008B7010008B7010008B7010008DF
:10012000B70100086D09000879090008B701000847
:10013000B7010008B7010008B7010008AD030008C7
:10014000A1030008B7010008B7010008B7010008C3
:10015000B7010008B7010008B70100082134000802
:10016000B7010008B7010008B7010008B70100088F
:10017000B7010008B7010008B7010008000000003F
:10018000B7010008B7010008DFF80CD000F08CF8C8
:1001900000480047AD360008280E0020064880477A
:1001A00006480047FEE7FEE7FEE7FEE7FEE7FEE75C
:1001B000FEE7FEE7FEE7FEE73D2D000889010008A7
:1001C0002DE9F05F0546002092469B46884606468C
:1001D000814640241BE0284641464746224600F01F
:1001E00053F853465A46C01A914110D31146184647
:1001F000224600F03AF82D1A67EB01084F462246D6
:100200000120002100F031F817EB00094E41201EBB
:10021000A4F10104DFDC484631462A464346BDE8E6
:10022000F09F40EA01039B0703D009E008C9121FB1
:1002300008C0042AFAD203E011F8013B00F8013BA0
:10024000521EF9D27047D2B201E000F8012B491ECC
:10025000FBD270470022F6E710B513460A46044663
:100260001946FFF7F0FF204610BD202A04DB203A94
:1002700000FA02F1002070479140C2F1200320FAF9
:1002800003F3194390407047202A04DB203A21FAF7
:1002900002F00021704721FA02F3D040C2F120029F
:1002A0009140084319467047064C074D06E0E06848
:1002B00040F0010394E8070098471034AC42F6D3AD
:1002C000FFF766FF2C3C00084C3C000830B58C184A
:1002D00010F8012B12F00F0301D110F8013B1209A5
:1002E00006D110F8012B03E010F8015B01F8015B67
:1002F0005B1EF9D101E001F8013B521EFBD1A14286
:10030000E6D3002030BD70B5044690F839002028AF
:1003100001D0212829D121B31AB394F8380001283B
:1003200023D0012084F83800A162A2850025E5636E
:1003300094F83900212816D0222084F83900084684
:100340001346666B216802463046091D01F03CFAEF
:100350002068416941F04001416184F83850002033
:1003600070BD012070BD2320E7E7022070BD10B5ED
:100370000446FFF7C8FF2068C16841F01001C16062
:10038000002010BDFEE70000014800F05CBE000048
:1003900078010020014800F056BE000078010020DE
:1003A000014800F050BE0000A0010020014800F00C
:1003B0004ABE0000A001002000B58BB00020012142
:1003C000CDE90601089100900190029003900590FC
:1003D000049069460C4800F03BFD0B4801F074F8AE
:1003E0000221094800F0BEFC0E20099005906946E4
:1003F000064800F02DFD054801F066F8022103488B
:1004000000F0B0FC0BB000BD78010020A00100207E
:10041000F0B58BB0074600200D46049005900820EB
:100420001B4906900024D1E9000108AECDE908017E
:1004300036F81400029035F834000AAB000A8DF843
:10044000000015F834008DF8010005EBC4006A4681
:100450004188090A8DF8021081788DF8031081888F
:10046000090A8DF8041001798DF80510C188090A70
:100470008DF8061080798DF8070002A9384600F043
:1004800083FC641CE4B2022CD2D30BB0F0BD00009C
:10049000243900080A88C2F30A02A2F580620280A9
:1004A0004A788B78D20842EA4312C2F30A02A2F5D4
:1004B000806242808A78CB78920942EA83020B7983
:1004C00042EA8322C2F30A02A2F5806282800A799C
:1004D0004B79520842EAC312C2F30A02A2F58062C3
:1004E000C2804A79920902724A79C2F301124272B9
:1004F000CA8842810A8982814A89C2810A7B027440
:100500004A7B4274C98941827047000000EE100A9C
:1005100006480749B8EEC00A80ED010AB1F9621039
:1005200000EE101A016EB8EEC00A0847FC08002061
:100530001804002000B589B000220292CDE9032101
:100540000692079240F2011200920A46014606A85E
:10055000FFF767FE08AB06AA6946024800F014FCE4
:1005600009B000BD780100202DE9F04700252DEDF0
:10057000028B84B0194F9FED1A8ADFED1A8A2E463E
:1005800041F2707841F288394FF4804A05EBC5009A
:1005900000EB051007EB8004204603F075F9CDE968
:1005A000006820460296A46DF0EE481AB0EE681A74
:1005B000F7EE080AB2EE040A4B4652460121A04764
:1005C0006D1C022DE2DB084880ED008A80ED018A77
:1005D00004B0BDEC028BBDE8F08700007C07002072
:1005E00000000000CDCCCC3D280100206549B1F8C9
:1005F000A80000EE900AF8EE600A9FED631A6348C7
:10060000634B00EEC10A80ED030AF0EEC00A10EE63
:10061000902A9A420DDD9FED5F1AB5EEC00AF1EE09
:1006200010FA02DD30EEC10A01E031EE600A80ED21
:10063000030A90ED000AD0ED030A20EE202A80ED97
:100640001C2A90ED1D0A90ED011A01EE200A80EDA2
:100650001D0A90ED051AB4EEC10AF1EE10FA06DC9F
:10066000B1EE411AB4EEC10AF1EE10FA01D280EDFA
:100670001D1AB1F9AA10490000EE101AB8EEC00A0E
:10068000DFED451A20EE211ADFED442A81EE220A21
:1006900090ED021A21EE400A80ED1E0A90ED1D1A1F
:1006A00032EE011A31EE000A80ED1F0A90ED061AB3
:1006B000B4EEC10AF1EE10FA06DCB1EE411AB4EE66
:1006C000C10AF1EE10FA01D280ED1F1A00EE101AE5
:1006D000C0ED040A2D49B8EEC00A803120EE210A8F
:1006E000C0EE220A90ED1F0A30EE600A80ED0A0A81
:1006F000D0ED070A60EE801AC1ED001AD1ED010AB3
:1007000090ED081A41EE000AC1ED010A90ED0C1AB5
:10071000F4EEC10AF1EE10FA06DCB1EE411AF4EE85
:10072000C10AF1EE10FA01D281ED011AD0ED0B0AE7
:1007300090ED091A70EEC00A60EE810AC1ED020A5E
:1007400091ED011A31EE811A71EE200AC1ED030A12
:1007500090ED0D1AF4EEC10AF1EE10FA06DCB1EEDE
:10076000411AF4EEC10AF1EE10FA01D281ED031A3A
:1007700080ED0B0A91ED040A81ED050A91ED030A63
:100780007047000018040020A005343D4000002000
:10079000000034430000B443DB0F494000007042C6
:1007A000674AB2F8780000EE900AF8EE600A9FED12
:1007B000651A6549654B60EE810A70EE600AC1ED0D
:1007C000110AB0EEE00A10EE100A984202DC91ED38
:1007D000110A0DE09FED5E1AF5EEC00AF1EE10FA77
:1007E00002DD30EE410A01E031EE400A81ED110AEE
:1007F000DFED580A544820EE200A803081ED110ABE
:10080000D1ED0E0A60EE801AC0ED061AD0ED070A8F
:1008100091ED0F1A41EE000AC0ED070A91ED131A8F
:10082000F4EEC10AF1EE10FA06DCB1EE411AF4EE74
:10083000C10AF1EE10FA01D280ED071AB2F97A205E
:10084000520000EE902AF8EEE00A9FED432A20EED7
:10085000821ADFED422AC1EE220A91ED101A61EEF2
:10086000600AC0ED080A90ED071A31EE811A71EEA8
:10087000200AC0ED090A91ED141AF4EEC10AF1EE56
:1008800010FA06DCB1EE411AF4EEC10AF1EE10FAEC
:1008900001D280ED091A81ED120A00EE102AB8EE9D
:1008A000C00A20EE020AC0EE220A90ED090A30EEDC
:1008B000600A81ED180AD1ED150A60EE801AC0EDCC
:1008C0000A1AD0ED0B0A91ED161A41EE000AC0ED9E
:1008D0000B0A91ED1A1AF4EEC10AF1EE10FA06DCD9
:1008E000B1EE411AF4EEC10AF1EE10FA01D280ED38
:1008F0000B1AD1ED190A91ED171A70EEC00A60EECD
:10090000810AC0ED0C0A90ED0B1A31EE811A71EEDE
:10091000200AC0ED0D0A91ED1B1AF4EEC10AF1EEAA
:1009200010FA06DCB1EE411AF4EEC10AF1EE10FA4B
:1009300001D280ED0D1A81ED190A90ED0D0A704774
:1009400018040020A005343D40000020000034437E
:100950000000B44398F98E3CDB0F49400000704220
:10096000014800F0F7BD000028030020014800F016
:10097000F1BD000088030020014800F0EBBD00003D
:10098000C802002001681823CAB2103AB2FBF3F281
:10099000054B6FF30901032A9B5CC36500D9091D50
:1009A00081650846704700000439000810B501460B
:1009B00000208B698A6A4FF0C07453B1B3F5005FB1
:1009C00015D072B1012A0CD0022A0AD0032A09D10B
:1009D00004E01AB1012A06D0022A03D1C96AC9016A
:1009E00000D5012010BDC96AA142FAD010BD002A6D
:1009F000F7D0012AF2D0022AF3D0032AF3D010BD97
:100A000030B50468256825F4802525600468636096
:100A10008368402B036803D099600068C26030BDD2
:100A20009A600068C16030BD7047000038B5044668
:100A300000680D460068C00675D5606B00680168E7
:100A400021F001010160204602F052FB3648844249
:100A500002D1242135480AE03548844202D164217C
:100A6000344804E03448844203D1C8213348FFF7B6
:100A7000F1FB606B0268324882420AD03148824200
:100A800007D02F486030824203D02E486030824227
:100A900001D1202022E02A491831C8148A421DD0F1
:100AA000284918318A4219D0254978318A4215D00F
:100AB000244978318A4211D02149800230318A425A
:100AC0000CD0204930318A4208D01D4990318A42E9
:100AD00004D01C4990318A4200D080011949483124
:100AE0008A4202D91749091F05E01549A8318A42EF
:100AF00003D914490839086008E0114B10494833FC
:100B000010399A4201D9C86000E08860606B0068C3
:100B10004560606B0068016841F001010160206878
:100B200001684068009038BD480200205807002046
:100B30000802002014060020880200204C05002036
:100B400010600240106402407047000010B558B1B8
:100B5000084C491E0BD310F8013B5340DBB234F86C
:100B6000133083EA1222F4E74FF6FF7010BD1046EF
:100B700010BD00002A3A000810B5064C04E000BF82
:100B800010F8013B5340E25C491E89B2F8D210468E
:100B900010BD00002A39000810B5164C9FED131A3D
:100BA000DFED130A94ED050A02F05CFD84ED050A01
:100BB000FFF7F6FDBDEEC00A0F4984ED040AA069F7
:100BC000884202DD9FED0D0A07E00D49884202DBF5
:100BD00094ED060A03E09FED0B0A84ED060AFFF789
:100BE00005FDBDEEC00A84ED030A10BD0000B4434C
:100BF0000000000000010020000003430000034348
:100C0000000040420000404270B5264C6068012858
:100C100020D1254DB5F9060000EE100AB8EEC00A45
:100C200002F086FCD4ED060A9FED201A40EE010A80
:100C3000C4ED060AB5F9040000EE100AB8EEC00AC9
:100C400002F060FCD4ED050A9FED191A40EE010A8E
:100C5000C4ED050A9FED171ADFED170A94ED050A9A
:100C600002F000FD84ED050AFFF79AFDBDEEC00A13
:100C7000124984ED040AA069884202DD9FED100A42
:100C800007E01049884202DB94ED060A03E09FED7D
:100C90000E0A84ED060AFFF7A9FCBDEEC00A84ED3A
:100CA000030A70BD00010020380500206F12033ACE
:100CB0006F1283BA0000B443000000000000034339
:100CC0000000034300004042000040421E4801680B
:100CD000012938D181680122B9B91C49B1F8A8307D
:100CE00000EE103AF8EE400A9FED190A60EE800A15
:100CF000C0ED060AB1F8781000EE901AF8EE600A1E
:100D000020EE800A80ED050A826090ED060A114906
:100D100010EE103ADFED100A8B4202DA30EE200AB4
:100D200005E010EE103A8B4203DD30EE600A80EDF4
:100D3000060A10EE101A094B1944094B994202D2C7
:100D40000021C0E9001270470001002018040020B3
:100D5000A005343D0000D6420AD7233CFFFF2BBD3F
:100D6000FFFF030090F82020012A07D0022A05D0B7
:100D7000416A41F480214162012070470068426964
:100D80000A43426100207047F0B590F82050046893
:100D9000A468012D05D0022D03D0416A41F48021C1
:100DA00053E014F0406F01D1E5004BD5C4F301646A
:100DB000022C03D9416A41F4000146E00125A54017
:100DC0001D608D684FF4C0739DB1CE6835434E6889
:100DD00045EAC605066803EB0417F5514FF4C275E2
:100DE000076805EB04150E697E51097D012905D0C0
:100DF00009E00E88CD6845EA4655EBE701684E5993
:100E000046F480764E511179D2F805504FF4C676EB
:100E100041EA0525016806EB04168D511178D2F8D8
:100E200001204FF4C47541EA0221026805EB041564
:100E30005151006803EB0411425842F00102425044
:100E40000020F0BD416A41F4001141620120F0BD73
:100E500010B590F82020012A07D0022A05D0416A57
:100E600041F480214162012010BD3B48D0F80022AE
:100E700042F00102C0F80022D0F8002222F47C5295
:100E8000C0F80022D0F800224B6A42EA0322C0F8E0
:100E900000220A7D02F01F0301229A40D0F81C3282
:100EA0009343C0F81C32CB69B3B9D0F80C329343EA
:100EB000C0F80C328C894B6864F31F434C6900EB1B
:100EC000C404C4F840320C890B6864F31F434C69B6
:100ED00000EBC404C4F84432CB69012B16D1D0F81E
:100EE0000C321343C0F80C320C884B6864F31F4378
:100EF0004C6900EBC404C4F840320C89CB6864F33D
:100F00001F434C6900EBC404C4F844328B69002BC6
:100F1000D0F804320ED01343C0F804320B69002B12
:100F2000D0F8143208D01343C0F81432096A0129EA
:100F300004D008E09343EFE79343F5E7D0F81C12A1
:100F40001143C0F81C12D0F8001221F00101C0F8C2
:100F50000012002010BD000000640040704730B552
:100F600090F82040012C05D0022C03D0416A41F4B6
:100F700080215DE00468002955D02469A40754D07D
:100F80004FF4D874056804EB01142D5915F00405CD
:100F9000956005682D594ED0ED08556005682C59AF
:100FA00004F00204D4604FF4DA74056804EB011411
:100FB0002D5905F00F05156105682D59C5F3072555
:100FC000956105682C59240C54614FF4DC72046857
:100FD00002EB0112A4581C700468A458240A5C7027
:100FE0000468A458240C9C700468A258120EDA708D
:100FF0004FF4DE72046802EB0112A4581C710468FD
:10100000A458240A5C710468A458240C9C710468D8
:10101000A258120EDA71006881B1016941F0200115
:101020000161002030BDE468A8E7416A41F4001185
:101030004162012030BD6D0D1560AFE7C16841F020
:101040002001C160EDE72DE9F05F0546006800244E
:101050004669D0F804908768D0F80CB0D0F810A09A
:10106000D0F81880F10748D0F90714D00121816029
:10107000B80703D5284600F054FA0CE0780702D5EB
:101080004FF4006407E0380702D54FF4805402E0C3
:10109000284600F045FAF80516D529684FF4807007
:1010A0008860B80503D5284600F03DFA0CE07805C5
:1010B00002D544F4005407E0380502D544F48044D6
:1010C00002E0284600F02EFAF80316D529684FF4FE
:1010D00080308860B80303D5284600F026FA0CE07B
:1010E000780302D544F4004407E0380302D544F401
:1010F000803402E0284600F017FA300707D55FEA8F
:10110000CB6004D52968102044F40074C8607007CF
:101110004FF0080707D55FEA0B7004D52868C76051
:10112000284600F0A9F9B00706D52868C0688007EE
:1011300002D0284600F0A2F9700607D55FEACA601F
:1011400004D52968102044F480640861B00607D5EE
:101150005FEA0A7004D528680761284600F0B0F9F4
:10116000F00606D528680069800702D0284600F0FE
:10117000A8F9B00308D55FEAC96005D52968102031
:101180004860284600F09EF9F00307D55FEA097031
:1011900004D528684760284600F0C8F9300446D5D1
:1011A0005FEA497040D5F00504D55FEAC87001D008
:1011B00044F00104B00504D55FEA887001D544F01D
:1011C0000204700504D55FEA487001D544F00404B8
:1011D000300529D518F0700F26D008F0700040288F
:1011E00015D006DC102809D020280AD0302816D1C6
:1011F0000AE050280ED0602811D10EE044F0080417
:101200000DE044F010040AE044F0200407E044F04C
:10121000400404E044F0800401E044F48074286851
:10122000816921F070018161296804204860002CE7
:1012300005D0686A204368622846FFF78FFEBDE844
:10124000F09F70B5040003D094F8200010B104E0C2
:10125000012070BD204600F081F82068016821F06F
:101260000201016000F0B6FB0546052604E000F02F
:10127000B1FB401B0A2811D8206840688007F6D4CB
:101280002068016841F00101016000F0A3FB054600
:101290000BE000F09FFB401B0A2806D9606A40F46F
:1012A0000030606284F82060D2E720684068C007A0
:1012B000EFD0207E0128206801683DD021F0800118
:1012C0000160607E01282068016838D021F040016B
:1012D0000160A07E01282068016833D021F0200140
:1012E0000160E07E0128206801682ED041F01001E5
:1012F0000160207F01282068016829D021F00801C1
:101300000160607F01282068016824D021F0040179
:101310000160D4E902010843D4E9041211430843EF
:101320006168491E08432168C8610020606201208D
:1013300084F82000002070BD41F08001C0E741F03A
:101340004001C5E741F02001CAE721F01001CFE7D5
:1013500041F00801D4E741F00401D9E7F0B587B0C6
:10136000044614216846FEF775FF3E4B3E48DFF801
:10137000F0E01968D4F800C03B4A0325022609278B
:1013800010300024491CF4452AD11960012907D1E5
:10139000016841F000710160006800F00070059084
:1013A000106840F0080010601068CDE9005600F0A9
:1013B0000800CDE9047069462C48CDE9024500F0EB
:1013C00027FA00221146132000F072FB132000F0D0
:1013D00061FB00221146142000F06AFB14203AE061
:1013E000DFF88CE0F44538D1D0F800C04CF0806CC8
:1013F000C0F800C0D0F800C001290CF0806CCDF816
:1014000014C0196007D1016841F0007101600068E3
:1014100000F000700590106840F002001060106845
:1014200002AB00F0020005906020CDE9000683E8E1
:10143000B00069460F4800F0EBF9002211463F204A
:1014400000F036FB3F2000F025FB00221146402033
:1014500000F02EFB402000F01DFB07B0F0BD0000A7
:10146000006400400000002030380240000C0240C0
:1014700000680040000402407047000010B58AB0C8
:10148000044607AB6A460021FFF769FD0A4884421B
:1014900010D10098A0F201200A280BD80098074923
:1014A00000EB400001EBC000A0F5405007A9183840
:1014B00002F092F80AB010BD780100201804002054
:1014C000704770477047000070B5044690F82000E0
:1014D000012804D0606A40F40020606218E0022015
:1014E00084F820002068016821F00101016000F00B
:1014F00071FA05460EE000BF00F06CFA401B0A28A6
:1015000008D9606A40F400306062052084F8200049
:10151000012070BD20684068C007EDD1606270BDD9
:10152000704770477047704770477047704790F832
:101530003510022903D08021416501207047052123
:1015400080F835100068016821F001010160002079
:10155000704700002DE9F84304464FF00009CDF82C
:10156000009063484FF41651A56D0068B0FBF1F789
:101570002E6894F85C10082000FA01F131420FD077
:1015800021680A6852070BD50A6822F004020A6033
:1015900094F85C108840A860606D40F001006065C0
:1015A00094F85C104FF0010808FA01F0304208D0BE
:1015B00021684969090604D5A860606D40F0020001
:1015C000606594F85C1004208840304208D021689F
:1015D0000968890704D5A860606D40F00400606563
:1015E00094F85C1010208840304218D021680968B7
:1015F000090714D5A86020680168490304D500686C
:10160000000308D5A16C07E00168C90503D401688F
:1016100021F008010160216C09B12046884794F847
:101620005C1020208840304231D021680968C9060A
:101630002DD5A86094F8350005282068016806D0EB
:10164000490347D5006800031DD4616C1CE021F0FC
:10165000160101602068416921F080014161206C20
:1016600008B9A06C20B12068016821F00801016070
:1016700094F85C103F208840A86084F8349084F887
:101680003580216D1FE0E16B09B120468847606D10
:1016900000282BD0606DC00714D0052084F83500D9
:1016A0002068016821F0010101600098401C009051
:1016B000B84203D820680068C007F6D184F8349097
:1016C00084F83580E16C002910D001B02046BDE8D7
:1016D000F04308470168C905D5D4016821F010011D
:1016E000016084F8349084F83580CCE7BDE8F88355
:1016F000200000202DE9F041044600F06BF9064679
:101700005CB1002584F83450022084F8350020684C
:10171000016821F0010101600DE00120BDE8F081C8
:1017200000F058F9801B052805D9202060650320AA
:1017300084F83500F2E720680068C007F0D122681D
:10174000116820480140D4E901031843D4E9033665
:101750003343184363691843A3691843E369184383
:10176000236A18430843616A042903D1D4E90B139F
:1017700019430843106020684069666A20F0070139
:1017800030460E43012704280CD1A06A0643E06AC4
:1017900040B12046FFF70AF920B14020606584F887
:1017A0003570BAE7206846612046FFF7EBF894F8F9
:1017B0005C203F2191408160656584F83570002090
:1017C000ACE700003F8010F070B5044690F834009C
:1017D000002501280CD0012084F8340094F83560ED
:1017E0000020012E06D084F834000225284670BD62
:1017F000022070BD022684F8356060652046FFF740
:10180000FFF82068016841F001010160EEE7000087
:101810002DE9F84F00224FF0010803254FF00F0E7D
:101820000B6808FA02F42340A3426ED14E68012EE1
:1018300005D0022E03D0112E01D0122E12D18668AF
:101840004FEA420C05FA0CF7BE43CF6807FA0CF7D3
:10185000374387604668A6430C79C4F3001494406C
:1018600034434460C668570005FA07FC8C6826EAD2
:101870000C06BC403443C4604C68022C01D0122CCE
:1018800013D1D40800EB8404A346D4F82090540765
:101890004FEAD46A0EFA0AF629EA06090E6906FA30
:1018A0000AF646EA0906CBF8206006680C7926EAB3
:1018B0000C0604F00304BC40344304604C68E400AC
:1018C00065D5364C266846F480462660246822F0AA
:1018D000030604F480440094314C3444A446D4F804
:1018E00008489607370F0EFA07F6B4432D4EB0425C
:1018F00001D1002624E02C4EB04201D101261FE088
:101900002A4EB04202D102261AE040E0284EB042F0
:1019100001D1032614E0274EB04201D104260FE086
:10192000254EB04201D105260AE0244EB04201D135
:10193000062605E0224EB04201D1072600E0082627
:10194000BE402643CCF808681E4E34684F689C435E
:10195000FF0300D51C4334601A4C241D26684F68D1
:101960009E43BF0300D51E432660164E08363468DA
:101970004F689C43FF0200D51C433460114E0C3667
:1019800034684F689C43BF0200D51C433460521C2E
:10199000102AFFF445AFBDE8F88F0000443802403C
:1019A00000300140000002400004024000080240F4
:1019B000000C0240001002400014024000180240D7
:1019C000001C0240003C01400069084000D001209A
:1019D0007047000001488068704700001400002034
:1019E0000248816802781144816070471400002029
:1019F0000B4810B5016841F400710160016841F4C1
:101A000080610160016841F480710160032000F091
:101A10006FF8002000F006F800F024F8002010BD58
:101A2000003C024070B50D4D04464FF47A712878A1
:101A3000B1FBF0F00A490968B1FBF0F000F004FBDB
:101A400048B9102C07D200222146501E00F030F871
:101A500000206C6070BD012070BD000014000020EB
:101A6000200000200A4808B5016841F48041016067
:101A7000006800F4804000900548001F016841F0B4
:101A800080510160006800F08050009008BD0000A7
:101A900044380240002809DB00F01F020121914078
:101AA0004009800000F1E020C0F8001170470000FC
:101AB000F0B40E4B1B680C46C3F30223C3F10705B9
:101AC000042D00D90425191D072901D2002300E0A7
:101AD000DB1E012606FA05F1491E214099409E4071
:101AE000761E16403143F0BC01F0EDBC0CED00E079
:101AF000064900F0070208684FF6FF03184040EA65
:101B00000220034A10430860704700000CED00E01B
:101B10000000FA052DE9F0470E46050065D0DFF814
:101B20001481D8F80000F7B200F00F00B04207D2DD
:101B300088F80070D8F8000000F00F00B04254D1CF
:101B400028683D4C810712D5400703D5206840F432
:101B5000E05020602878000703D5206840F46040FA
:101B600020602068A96820F0F000084320602878F1
:101B7000C0072DD0304968680839012812D00228E2
:101B800013D0032811D00968890700292DDA2168AC
:101B900021F0030101432160FFF71CFF814641F260
:101BA000883A0EE009688903EFE709688901ECE7E4
:101BB000FFF710FFA0EB0901514502D90320BDE852
:101BC000F0872068696800F00C00B0EB810FEFD15E
:101BD000D8F80010404601F00F01B14207D9077054
:101BE000006800F00F00B04201D00120E7E728783C
:101BF000400705D52068E96820F4E05008432060DC
:101C00002878000706D52068296920F4604040EA5A
:101C1000C100206000F038F82168084AC1F30311C0
:101C2000515CC8400649086006480068FFF7FAFEA4
:101C30000020C4E7003C0240083802400C3900088C
:101C400020000020180000200448054900680968A9
:101C5000044AC1F38221515CC84070472000002033
:101C6000083802401C390008044805490068096822
:101C7000044AC1F34231515CC84070472000002043
:101C8000083802401C390008154810B5006810F0EB
:101C90000C02144813D01449042A0FD0082A0ED17C
:101CA0000F4C241F2268236802F03F025B0207D515
:101CB0002068C0F38810A0FB010106E0084610BDB3
:101CC0002168C1F38811A1FB00010023FEF778FA17
:101CD0002168C1F30141491C4900B0FBF1F010BD7E
:101CE000083802400024F400001BB7002DE9F84F2B
:101CF00004006ED02078DFF83C93C007A9F10405FA
:101D00004AD009F104000168C1F38101012908D01A
:101D10000068C0F3810002280AD1D9F8000040020F
:101D200006D52868800337D560680028E1D033E005
:101D30006068B0F5803F10D0B0F5A02F286810D0B3
:101D400020F480302860286820F4802028606068B3
:101D5000A8B1FFF73FFE06460DE0286840F480304A
:101D6000F4E740F480202860F7E700BFFFF732FE79
:101D7000801B642873D828688003F7D50CE0FFF730
:101D800029FE064605E000BFFFF724FE801B6428FD
:101D9000F0D828688003F7D42078DFF89C82800789
:101DA0004FF0000A3ED5A348001D016811F00C0F4A
:101DB00008D00068C0F3810002280BD1D9F80000D8
:101DC000400207D42868800716D5E068012800D1B2
:101DD00012E02BE1E068B8B10120C8F80000FFF77D
:101DE000F9FD064605E000BFFFF7F4FD801B022861
:101DF000C0D828688007F7D52868216920F0F80046
:101E000040EAC10028600DE0C8F800A0FFF7E2FD3D
:101E1000064604E0FFF7DEFD801B02281FD8286875
:101E20008007F7D42078000722D5824E8348616965
:101E3000703671B101210160FFF7CCFD074604E067
:101E4000FFF7C8FDC01B022809D830688007F7D506
:101E50000EE0C0F800A0FFF7BDFD074605E082E0F8
:101E6000FFF7B8FDC01B02287DD830688007F7D483
:101E70002078400768D5DFF8BCB100270BF13C0B98
:101E8000DBF80000C0000BD4DBF8001041F08051FB
:101E9000CBF80010DBF80000012700F08050009024
:101EA000674E3068C00510D4306840F480703060F0
:101EB000FFF790FD009005E0FFF78CFD0099401AB8
:101EC000022850D83068C005F6D55A4EA0686C3646
:101ED00001280FD00528306810D020F001003060B4
:101EE000306820F004003060A068B8B1FFF772FDE0
:101EF00000900FE0306840F00100F4E740F004008B
:101F00003060F7E7FFF766FD0099411A41F288302B
:101F1000814266D830688007F4D50EE0FFF75AFD9D
:101F2000009007E0FFF756FD0099411A41F2883012
:101F3000814256D830688007F4D42FB1DBF8001006
:101F400021F08051CBF80010A069C8B33949091DB0
:101F50000968C1F3810102294AD00228504607D0FE
:101F6000C8F8600000E03CE0FFF734FD04463BE0C9
:101F70004746C8F86000FFF72DFD064605E000BFA4
:101F8000FFF728FD801B02282BD828688001F7D492
:101F9000D4E907010843A16A2A4A490802EB014132
:101FA000626A41EA8211084394F82C1040EA016108
:101FB000C9F8001001203866FFF70CFD044606E062
:101FC00036E000BFFFF706FD001B022809D828688D
:101FD0008001F7D52CE000BFFFF7FCFC001B0228B6
:101FE00002D90320BDE8F88F28688001F4D41FE0EF
:101FF0000128F7D0D9F80000E26900F4800191428D
:1020000014D1226A00F03F0191420FD147F6C0710E
:10201000626A0140914209D1A26A00F440319142C2
:1020200004D1E16A00F07060884201D00120D9E754
:102030000020D7E70438024000004742800E4742A4
:10204000007000400000FFFF10B5401EB0F1807F1F
:1020500001D3012010BD4FF0E02460610F21601713
:1020600001F031FA0020A06107202061002010BD9E
:102070007047704770B590F83C20012A32D0012497
:1020800080F83C40022280F83D2003685A689D6831
:1020900022F070060A6832435A60134B02689A4273
:1020A00014D0B2F1804F11D0104B9A420ED0104B89
:1020B0009A420BD00F4B9A4208D00F4B9A4205D050
:1020C0000E4B9A4202D00E4B9A4204D1496825F039
:1020D00080031943916080F83D40002180F83C1056
:1020E000084670BD022070BD0000014000040040A1
:1020F00000080040000C0040000401400040014086
:102100000018004010B5040003D094F83D0010B151
:1021100007E0012010BD002084F83C00204600F0BC
:102120000DF8022084F83D00211D206800F030FFEA
:10213000012084F83D00002010BD000008B50068B3
:102140000B49884212D10B48016841F0010101603E
:102150000068002200F00100009011461920FFF7EE
:10216000A7FCBDE808401920FFF794BC08BD00009B
:1021700000000140443802400168CA6842F0010290
:10218000CA600068816801F00701062903D0016870
:1021900041F0010101600020704770B5044690F8DD
:1021A0003C00012817D0012584F83C50022084F817
:1021B0003D002068826822F0770222F47F4282602C
:1021C0000868502830D00DDC20284DD005DC98B3AD
:1021D00010283BD148E0022070BD302844D0402870
:1021E00034D139E0602828D0702806D0B0F5805F5F
:1021F0002CD0B0F5005F29D10AE0CB68D1E90121EC
:10220000206800F029FF2068816841F0770109E02B
:10221000CB68D1E90121206800F01EFF20688168A9
:1022200041F48041816011E0CA684968206800F08B
:1022300025FF5021206807E016E0CA684968206839
:1022400000F02DFF6021206800F010FF84F83D5061
:10225000002084F83C0070BDCA684968206800F01E
:102260000DFF40212068EFE7226801461046EBE7AA
:10227000704770B50446006801694FF00005C94316
:10228000890715D4C168C943890711D4E91E0161C2
:1022900001202077206880698007204602D0FFF760
:1022A000E7FF04E000F098F8204600F096F8257764
:1022B00020680169C943490717D4C168C943490760
:1022C00013D46FF004010161022020772068806937
:1022D00010F4407F204602D0FFF7CAFF04E000F070
:1022E0007BF8204600F079F8257720680169C9431A
:1022F000090716D4C168C943090712D46FF0080151
:102300000161042020772068C0698007204602D040
:10231000FFF7AEFF04E000F05FF8204600F05DF844
:10232000257720680169C943C90617D4C168C94324
:10233000C90613D46FF010010161082020772068CE
:10234000C06910F4407F204602D0FFF791FF04E0FF
:1023500000F042F8204600F040F825772068016937
:10236000C943C90708D1C168C943C90704D1891E37
:102370000161204600F032F820680169C94309066E
:1023800009D4C168C943090605D46FF08001016111
:102390002046FFF76DFE20680169C943490609D44C
:1023A000C168C943490605D46FF040010161204668
:1023B00000F015F820680169C94389060BD4C1688B
:1023C000C943890607D46FF0200101612046BDE8AA
:1023D0007040FFF74EBE70BD704770477047704742
:1023E0007047000070B5026804461068D1685369F0
:1023F00010F00F0F52D003F0010501F490762E4338
:102400005FD0C20705D0CA0503D5E26B42F00102D6
:10241000E263420705D5DA0703D0E26B42F002021D
:10242000E263820705D5DA0703D0E26B42F00402CB
:10243000E263020707D501F020022A4303D0E26BD2
:1024400042F00802E263E26B002A33D0800604D532
:10245000880602D5204600F0B9FE20684069E16B8D
:10246000C0F38010090700D428B3204600F031FEE5
:102470002068416949061AD5416921F0400141614E
:10248000606BA0B11B490165606BFFF750F8002835
:1024900010D0606B016DBDE870400847830610D511
:1024A0008B060ED52046BDE8704000F08FBE20465A
:1024B000FFF796FF70BD2046FFF792FF0020E06314
:1024C00070BD030606D50B0604D52046BDE8704056
:1024D00000F05CBF4006F3D54806F1D5D168204630
:1024E00021F04001D160202184F8391000F04BF92F
:1024F00070BD0000C330000870B5040004D094F82B
:102500003900002510B106E0012070BD84F8385074
:10251000204600F023F8242084F839002068C168A0
:1025200021F40051C160204600F09CFE2068016942
:1025300021F4904101612068416921F02A01416143
:102540002068C16841F40051C160E563202084F82F
:10255000390084F83A00002070BD00002DE9F04FEA
:1025600087B0054614216846FDF774FE7B48DFF806
:10257000E8811438D5F800C00024784902220326E7
:10258000072307154FF0006B4FF00409C44557D1DE
:10259000D1F800C04CF0100CC1F800C0096801F07F
:1025A00010010591016841F002010160016801F02C
:1025B00002010591016841F00101016000680DF11F
:1025C000080C00F0010005908020CDE900029A4639
:1025D0008CE85004904669466148FFF719F9781075
:1025E000CDE900080DF10808694688E850045D4807
:1025F000FFF70EF9DFF874815B494046C8F8001018
:10260000C0E901B4C0E90347C8F81440C8F818404D
:10261000C8F81C40C0E90849C8E90A64C8F8304055
:10262000FFF768F808B1FEF78FFAC5F8348000228A
:1026300011462520C8F83850FFF73AFA25203FE028
:10264000DFF82C81C44540D14449091FD1F800C0AE
:102650004CF4802CC1F800C0096801F48021059178
:10266000016841F0040101600068B04600F0040018
:1026700005904FF4406004938DE8150169463D488C
:10268000FFF7C6F8394E3C4860363060C6E901B401
:10269000C6E903477461B461F461C6E90849C6E953
:1026A0000A8430463463FFF725F808B1FEF74CFA88
:1026B0006E63002211462720B563FFF7F9F9272042
:1026C000FFF7E8F907B0BDE8F08F2C4B9C45F9D136
:1026D0000B6843F020030B60096801F020010591AD
:1026E000016841F0400101600068694600F0400067
:1026F00005904FF484408DE8550008200490204850
:10270000FFF786F8DFF86480174908F1C008183928
:102710004046C8F800108905C0E90114C0E9034724
:10272000C8F81440C8F81840C8F81C40C0E9084967
:10273000C8E90A64C8F83040FEF7DCFF08B1FEF7CC
:1027400003FAC5F83480002211464720C8F83850F3
:10275000FFF7AEF94720B3E70010014044380240CC
:10276000000402400000024040640240C802002011
:102770000048004000080240286002400014014068
:102780000018024070477047FEE700002DE9F04155
:1027900004004FF000060AD0614D2068C5F8230000
:1027A000207985F827002078A52803D0B3E0012000
:1027B000BDE8F0810521204600F070FE01270128C8
:1027C00036D161782046093100F04AFE01282FD128
:1027D000B4F80500012640F20122A0F20121904246
:1027E0004FD016DC052831D008DC01281AD0022889
:1027F0001FD0032820D004287FD121E0A0F58070CD
:1028000001382AD001282DD0032832D0042874D1D1
:1028100034E00A2971D2DFE801F070393E45484EB4
:10282000545B6065B4F80700A5F80B00607A687324
:1028300063E0E079A87060E02022E11D39482EE0D5
:10284000B4F80700E881607A287456E0B4F807000D
:10285000A5F81100607AE8744FE0D4F80700C5F8D5
:1028600017004AE0B4F80700A5F81B00607A687703
:1028700043E0B4F80700A5F807003EE0E079E8700F
:102880003BE028481222E11D203008E025481022B4
:10289000E11D323003E023481022E11D4230FDF7F4
:1028A000C0FC2AE0E079287127E0B4F80700A8828C
:1028B000607AA87521E0E079687100091DD16F7018
:1028C0001BE0D4F80700A862B4F80B00A88514E058
:1028D000B4F80700A5F809000FE0D4F80700C5F820
:1028E0001F000AE00F48D4F8071040F8521FD4F830
:1028F0000B104160D4F80F1081600948093423306F
:10290000B0F80100015DA52902D12044FFF73EFF88
:102910000EB12F7001E000202870304648E700001B
:102920003201002044080020104810B50E49016013
:102930000321416000214FF400228160C0E90312AD
:102940004FF4401242610176417681760122C276CF
:1029500001774177FEF775FC002803D0BDE81040F1
:10296000FEF7F2B810BD00000064004078010020BE
:10297000104810B50E4901600321416000214FF459
:1029800000228160C0E903124FF4401242610176D7
:10299000417681760122C27601774177FEF751FCBC
:1029A000002803D0BDE81040FEF7CEB810BD0000EF
:1029B00000680040A0010020154808B5016841F4F6
:1029C00000110160016801F400110091016841F4F7
:1029D000800101600068002200F480000090114630
:1029E0000C20FFF765F80C20FFF754F80022114681
:1029F0003920FFF75DF83920FFF74CF80022114627
:102A00003A20FFF755F8BDE808403A20FFF742B8F2
:102A100030380240194808B5016841F002010160F0
:102A2000016801F002010091016841F0400101607C
:102A3000016801F040010091016841F0010101606D
:102A4000016801F001010091016841F00801016095
:102A5000016801F008010091016841F00401016082
:102A6000016801F004010091016841F080010160FA
:102A7000006800F08000009008BD0000303802407F
:102A800010B586B000241748009401940294039472
:102A9000049413490594016042F2CF01C0E9011486
:102AA0001321C0E9031444618461FFF72BFB08B1D3
:102AB000FEF74AF84FF48050009069460948FFF746
:102AC0006CFB08B1FEF740F8049404A9054805948E
:102AD000FFF7D0FA002801D0FEF736F806B010BD97
:102AE00000000140C80100200C4810B50A490160EF
:102AF0004FF461314160002181600C22C160C0E966
:102B000004128161C161FFF7F7FC002803D0BDE822
:102B10001040FEF719B810BD001001400802002057
:102B20000C4810B50A4901600B49416000218160E1
:102B30000C22C160C0E904128161C161FFF7DCFCB5
:102B4000002803D0BDE81040FDF7FEBF10BD000017
:102B50000048004048020020A08601000C4810B543
:102B60000A4901604FF4E1314160002181600C228B
:102B7000C160C0E904128161C161FFF7BDFC00289A
:102B800003D0BDE81040FDF7DFBF10BD00140140C9
:102B900088020020FEE770477047704770B5FDEE71
:102BA000C00AB1EE400A144DBDEEC00A134CC5ED8B
:102BB000000A85ED010AB8EEE00A114E84ED010A23
:102BC000B6F93200216E00EE100A2046B8EEC00AB7
:102BD000884795ED010AB8EEC00A84ED1A0AB6F9E5
:102BE0004A00D4F8C41000EE100A04F16400BDE8F5
:102BF0007040B8EEC00A0847640100206009002058
:102C0000180400202DE9F04725482DED028B84B0F3
:102C100000F03AFE002540F68C20CDE90050204817
:102C20009FED208A41F2883602957200846DF0EEA5
:102C3000481A9FED1D1ADFED1D0AB2EE040A334655
:102C40000121A047164F0024DFED198AB1466437F1
:102C50004FF4FA5843F2666A04EBC40000EB041028
:102C600007EB8006304600F00FFECDE900583046F5
:102C70000295B66DF0EE481AB0EE681AF7EE080A43
:102C8000B2EE040A4B4652460121B047641CE4B23E
:102C9000022CE1D304B0BDEC028BBDE8F08700004C
:102CA000FC08002000000000CDCC4C3D6666A63F2D
:102CB000CDCCCC3DFEF794BE30B593B03021684604
:102CC000FDF7C8FA14210CA8FDF7C4FA194800252D
:102CD000016841F080510160006800F0805011905F
:102CE0001548016841F4804101600068022400F445
:102CF0008040119001200090000401908001CDE9F6
:102D0000064006200890A820CDE9090404200B9075
:102D10006846FEF7EBFF0CA90F2081E831004FF465
:102D2000A0500F90E002109005210CA8FEF7F2FED3
:102D300013B030BD403802400070004005480168C3
:102D400041F47001016003494FF000608039086070
:102D50007047000088ED00E02DE9F04F79482DED37
:102D6000028B81B0FFF785FA774830F8781F00EEC4
:102D7000101AF8EE400A9FED750A754DDFF8D4A1E0
:102D800060EE800A0121744FC5ED020A008E734E79
:102D900000EE900A0024DFF8C881F8EE600A20EE09
:102DA000800A85ED030A9AF80900012808D0DFF8A7
:102DB000B4B19FED6D8A022866D0032873D11FE05D
:102DC00088F8071088F8051088F8031088F80210B2
:102DD0009AF80800012800D13970FDF7DDFE63483C
:102DE0000078EE2807D0FF2807D0347095ED000A50
:102DF000B8EEC00A45E0022000E003203070F5E79D
:102E000088F80710894688F80510FDF75FFFFDF781
:102E1000FBFEDBF8000078BB9AF80800012804D01C
:102E200002282AD003283ED10EE088F8039088F8C3
:102E3000029095ED000AB8EEC00AFFF7AFFE03203E
:102E4000307087F800902EE088F8039088F80290A0
:102E500088F8019088F8009095ED000AB8EEC00A55
:102E6000FFF79CFE34706868401C6860B0F5C87F4E
:102E700019D96C6086F8009015E034703C70B0EEA3
:102E8000480AFFF78BFE0EE03948B0EE480A0460AE
:102E900038480460CBF80010FFF780FE0020FDF7F3
:102EA00035FB34703C7098F80510334D40460129CD
:102EB00002D1324909886981C179012902D1304999
:102EC0000988E98182782F49012A06D191ED0C0AFF
:102ED000BDEEC00A10EE102AAA8098F80300C14681
:102EE000012806D191ED250ABDEEC00A10EE100AA8
:102EF000E8804FF000084FF480412348FEF764FD5E
:102F000008B14FF0010838788DF8000030788DF85E
:102F100001008DF8028003216846FDF70BFB16497E
:102F20001A48FDF775FA002049460C5425F8104060
:102F3000401CC0B20C28F8D301B0BDEC028BBDE838
:102F4000F08F0000C801002018040020A005343DC7
:102F500004000020380500201C0100206001002032
:102F600000040020000100200000000024000020D8
:102F70000801002004010020E803002010010020C7
:102F80000C010020600900200010024078010020A0
:102F9000F0B50268254C264D264E274F274B4FF0A3
:102FA000804CA04209D0604507D0A84205D0B0426D
:102FB00003D0B84201D0984204D122F0700E4A6882
:102FC00042EA0E02A0421BD0604519D0A84217D099
:102FD000B04215D0B84213D0984211D0184DA84233
:102FE0000ED0184DA8420BD0174DA84208D0174D4F
:102FF000A84205D0164DA84202D0164DA84203D1D2
:1030000022F44075CA682A434D6922F080022A439F
:1030100002608A68C2620A688262A04201D0984255
:1030200001D10969016301214161F0BD0000014046
:103030000004004000080040000C00400004014073
:103040000040014000440140004801400018004099
:10305000001C00400020004010B5846842EA0322B2
:1030600024F47F440A432243826010BD826822F028
:1030700070020A4342F007018160704710B5036A8D
:10308000046A24F001040462846924F0F00444EA30
:10309000021423F00A020A438461026210BD10B5D3
:1030A000036A23F0100303628369046A23F4704304
:1030B00043EA023224F0A00343EA01118261016273
:1030C00010BD10B5806B0021C185C184FFF788F960
:1030D00010BD0168CA6822F49072CA6001684A692A
:1030E00022F001024A61202180F83A107047000066
:1030F0002D4910B5884205D1BDE810402B492C4818
:10310000FDF7C8B92B4988423ED12B49642201F111
:103110006400FDF786F8284964310878AF2832D179
:10312000C87AFA282FD14B7801222448AA2B04D040
:10313000BB2B04D0CC2B0AD105E0826007E0022132
:10314000C0E9012103E003228260897801701A49F5
:10315000383151F82F2FC260496801611449497A0A
:10316000012910D1806803280DD114480C3090ED4E
:10317000000A134880ED000A1048103090ED000A54
:10318000104880ED000A10BD0F498842FBD10A4962
:10319000C822C83901F5A270FDF743F80648BDE81A
:1031A0001040C838FFF7F2BA480200205807002044
:1031B000380500200802002014060020240000200A
:1031C00018010020140100208802002010B590F89A
:1031D0003A10222901D0022010BD8168B1F5805F2C
:1031E00011D00169002901681FD0496801F07F03EF
:1031F000816A4A1C82620B70C18D491E0904090C48
:10320000C18518D02BE00269816A002A02685268E1
:1032100005D0D2B20A80816A491C8162ECE7C2F310
:1032200008020A80816A891CF7E74A68816A4B1C98
:1032300083620A70E0E70168CA6822F02002CA606F
:103240000168CA6822F48072CA6001684A6922F083
:1032500001024A61202180F83A10FFF793FA00201A
:1032600010BD00002DE9F041044600680169E268E4
:1032700021F44051114301612169A068E2690843CA
:103280006169114308432168CA6849F20C639A4393
:103290000243CA6020684169A26921F44071114368
:1032A0004161E069192764253226B0F5004F354A9F
:1032B000354920684FF0000806D0884201D090427E
:1032C00036D1FEF7D1FC35E0884201D0904202D1E0
:1032D000FEF7CAFC01E0FEF7B7FC61684A18A0FBE4
:1032E000070148EB0803FCF76BFF0146B0FBF5F064
:1032F0000201B1FBF5F06FF01803584301EB8000B9
:1033000006EBC000B0FBF5F000F0F80002EB400265
:10331000B1FBF5F0584301EB800006EBC000B0FBB9
:10332000F5F000F00700216810448860BDE8F081E6
:10333000FEF78AFC61688B0F8A00A0FB0701FCF78F
:103340003FFF0146B0FBF5F06FF01802504301EB70
:10335000800006EB0010B0FBF5F000F0F002B1FBCE
:10336000F5F002EB0012B1FBF5F06FF018035843D3
:1033700001EB800006EB0010B0FBF5F000F00F0051
:10338000D1E70000001401400010014090F839100E
:10339000212901D0022070478168B1F5805F016A60
:1033A0000BD04A1C0262026809785160C18C491E28
:1033B0000904090CC1840ED017E009880268C1F322
:1033C0000801516001690029016A02D0491C0162AB
:1033D000ECE7891CFBE70168CA6822F08002CA603A
:1033E0000068C16841F04001C160002070470000E2
:1033F00010B50448FEF7F6FFBDE81040642101480F
:10340000FDF714BB0802002010B50448FEF7EAFFE0
:10341000BDE8104024210148FDF708BB4802002008
:1034200010B50448FEF7DEFFBDE81040C821014892
:10343000FDF7FCBA8802002010B5074A09E01468BD
:103440000378636013681C68E4432406FBD4401CC3
:10345000491E0029F3D110BD08020020FEE700003C
:1034600030B50C46050014D0022C12D90A48A11E12
:1034700002882846FDF76AFB2919C2B211F8023CFE
:103480009A4206D111F8011CB1EB102F01D1012095
:1034900030BD002030BD00003001002030B50C46AA
:1034A00005000ED0022C0CD9601E81B2FF222846E6
:1034B000FDF762FB291911F8011C814201D101209D
:1034C00030BD002030BD0907090E002804DB00F1E3
:1034D000E02080F80014704700F00F0000F1E020B9
:1034E00080F8141D704702E008C8121F08C1002AA6
:1034F000FAD170477047002001E001C1121F002A75
:10350000FBD170470748F0EE400A9FED071A90ED97
:10351000000A20EE010A9FED051A00EE810A80EDF7
:10352000000A7047F8000020C5DC6A3FD519A93DA4
:103530000748F0EE400A9FED071A90ED010A20EED1
:10354000010A9FED051A00EE810A80ED010A70471D
:10355000F8000020C5DC6A3FD519A93D17489FED4A
:10356000160AF5EE000A80ED000A9FED150A80EDBF
:10357000010AC0ED020A80ED030A80ED040ADFEDC6
:10358000110A80ED050AC0ED060ADFED0F0AC0ED55
:103590000B0ADFED0E0AC0ED0C0A80ED0D0A80ED7E
:1035A0000F0A80ED0E0A9FED0A0A80ED100A9FEDCA
:1035B000090A80ED110A70479A99193EA408002063
:1035C000000000000000484200007A44CDCCCCBD91
:1035D00000409C450060EA4610B5B0F90040048107
:1035E0000A8853BA03804A8852BA42808A8852BAFB
:1035F000828089791A1B8171B2F5805F02DDC16812
:10360000491E04E012F5805F02DAC168491CC160FE
:10361000A34202DA02F5005101E0A2F500510029AF
:1036200001DD0B4600E04B42002A01DD144600E0BC
:103630005442A34200DB1146026911444FF4902228
:1036400091FBF2F3016102FB13114FF4B473594380
:1036500091FBF2F100EE101AB8EEC00A80ED050AF7
:1036600010BD0000B4EEE01AF1EE10FA0FD371EEC7
:10367000601AB4EEC10AF1EE10FA03DC08E000BFF4
:1036800030EE610AB4EEC10AF1EE10FAF8DC7047D0
:10369000B4EEE00AF1EE10FA02D3704730EE210AE0
:1036A000B4EEE00AF1EE10FAF8D37047FEF7A0F995
:1036B000FFF702FBFFF7AEF9FFF77EF9FFF734F9EA
:1036C000FFF756F9FFF7DCF9FFF70EFAFFF728FAD4
:1036D000FFF744FAFCF770FE24221F491F48FCF74D
:1036E00046FE64221E491F48FCF741FEC8221E49BF
:1036F0001E48FCF73CFEFCF737FFFFF72FFFFFF7F4
:1037000081FA1B48FEF738FD1A4DDFF86C901B4E0E
:10371000DFF86CA01B4F1C4C4FF000084FF05A0B09
:1037200028680128FCD199ED000A0A2186ED000ADB
:103730009AED000A87ED000A84F800B03068C4F8FA
:1037400001003868C4F80500A52060720E48FFF734
:1037500073FEC5F80080E3E7580700204802002008
:1037600014060020080200204C05002088020020DA
:10377000C801002028000020100000203800002090
:103780000C0000203C0000206C01002010B5044615
:103790002DED028BB0EE408AC06C2065FEF71AF961
:1037A000E06494F85010401A84F8540084ED068ABE
:1037B000D4ED071AC4ED081A94ED0C0A84ED0D0A35
:1037C00094ED010A30EE480A84ED070AB5EEC00A0E
:1037D000F1EE10FA02DDF0EE400A01E0F1EE400AEF
:1037E00094ED101AF4EEC10AF1EE10FA46DDD4EDB4
:1037F000030A20EE801A84ED091AD4ED0A0A94ED2A
:10380000042A42EE000A30EE610AC4ED0A0AD4ED41
:10381000051A60EE211AC4ED0B1A94ED0F0AF4EEAE
:10382000C00AF1EE10FA01DD84ED0A0AD4ED0A0AAD
:10383000B1EE400AF4EEC00AF1EE10FA02D3B0EE97
:10384000600A01E084ED0A0A31EE000A70EE210AF6
:10385000C4ED0C0A94ED0E0AF4EEC00AF1EE10FA73
:1038600001DD84ED0C0AD4ED0C0AB1EE400AF4EE51
:10387000C00AF1EE10FA01D284ED0C0A94ED0C0AA4
:10388000BDEC028B10BD0000034981650349C16591
:103890000349016670470000A5380008FD3800089C
:1038A0008D3700089DED003A9DED022ADDED012ADD
:1038B000B8EE433A017080ED113A80ED100A00EE47
:1038C000103AB8EE400A80ED0F0A00EE102AB8EE6A
:1038D000400A80ED0E0AB8EEE20A80ED120AB8EE58
:1038E000C20A80ED010A9FED040A80ED0C0A0C303B
:1038F000C0EC030A70470000000000000C3080ECB0
:10390000030A70470006101600061016000000009B
:10391000000000000102030406070809000000007F
:10392000010203040002FF01FF02005EBCE2613FEE
:10393000DD83C29C7E20A3FD1F419DC3217FFCA28D
:10394000401E5F01E3BD3E6082DC237D9FC1421CBF
:10395000FEA0E1BF5D0380DE3C62BEE0025CDF8171
:10396000633D7C22C09E1D43A1FF4618FAA427791F
:103970009BC584DA3866E5BB5907DB856739BAE44D
:1039800006581947A5FB7826C49A653BD987045A7F
:10399000B8E6A7F91B45C6987A24F8A6441A99C731
:1039A000257B3A6486D85B05E7B98CD2306EEDB3DF
:1039B000510F4E10F2AC2F7193CD114FADF3702E0D
:1039C000CC92D38D6F31B2EC0E50AFF1134DCE903F
:1039D000722C6D33D18F0C52B0EE326C8ED0530DF1
:1039E000EFB1F0AE4C1291CF2D73CA947628ABF59F
:1039F00017490856B4EA6937D58B5709EBB53668CD
:103A00008AD495CB2977F4AA4816E9B7550B88D6FE
:103A1000346A2B7597C94A14F6A8742AC896154BB0
:103A2000A9F7B6E80A54D7896B350000891112232B
:103A30009B322446AD573665BF74488CC19D5AAF42
:103A4000D3BE6CCAE5DB7EE9F7F881100801933339
:103A50001A22A5562C47B7753E64C99C408DDBBF22
:103A600052AEEDDA64CBFFF976E802218B3010021A
:103A700099132667AF763444BD554AADC3BC588E02
:103A8000D19F6EEBE7FA7CC8F5D983310A209112F9
:103A90001803A7772E66B5543C45CBBD42ACD99EE2
:103AA000508FEFFB66EAFDD874C904428D5316614E
:103AB0009F702004A9153227BB364CCEC5DF5EEDC2
:103AC000D7FC6888E1997AABF3BA85520C439771B9
:103AD0001E60A1142805B3373A26CDDE44CFDFFDA2
:103AE00056ECE9986089FBBB72AA06638F7214409A
:103AF0009D512225AB343006B9174EEFC7FE5CCC82
:103B0000D5DD6AA9E3B8788AF19B87730E62955078
:103B10001C41A3352A24B1163807CFFF46EEDDDC61
:103B200054CDEBB962A8F99A708B088481951AA7D5
:103B300093B62CC2A5D33EE1B7F04008C919522B69
:103B4000DB3A644EED5F766DFF7C899400859BB710
:103B500012A6ADD224C3BFF136E0C1184809D33B49
:103B60005A2AE55E6C4FF77D7E6C0AA583B41886F1
:103B700091972EE3A7F23CC0B5D14229CB38500A29
:103B8000D91B666FEF7E744CFD5D8BB502A49996D0
:103B90001087AFF326E2BDD034C1C3394A28D11A09
:103BA000580BE77F6E6EF55C7C4D0CC685D71EE525
:103BB00097F42880A1913AA3B3B2444ACD5B5669E9
:103BC000DF78600CE91D722FFB3E8DD604C79FF590
:103BD00016E4A9902081BBB332A2C55A4C4BD779C9
:103BE0005E68E11C680DF33F7A2E0EE787F61CC471
:103BF00095D52AA1A3B03882B193466BCF7A5448A9
:103C0000DD59622DEB3C700EF91F8FF706E69DD44F
:103C100014C5ABB122A0B9923083C77B4E6AD55888
:103C20005C49E33D6A2CF11E780F00004C3C000813
:103C3000000000206C010000CC0200088C3C000851
:103C40006C010020BC0C0000F634000851D518FCB3
:103C5000FFFF42019210032024F4733442E38242B6
:103C600034606A46730C42E3A0403460EA460317AE
:103C7000F04133FA4343E1443240E396C3045194A4
:0C3C8000C046023001033BFFFF000000C3
:040000050800018965
:00000001FF
